:100000000C9467020C948F020C948F020C948F0254
:100010000C948F020C948F020C948F020C948F021C
:100020000C948F020C948F020C948F020C948F020C
:100030000C948F020C948F020C948F020C948F02FC
:100040000C948F020C948F020C948F020C948F02EC
:100050000C948F020C948F020C948F020C948F02DC
:100060000C948F020C948F020C948F020C948F02CC
:100070000C948F020C948F020C948F020C948F02BC
:100080000C948F020C948F020C948F020C948F02AC
:100090000C9495080C948F020C94C0080C948F0259
:1000A0000C948F020C948F020C948F020C948F028C
:1000B0000C948F020C948F020C948F020C946C0998
:1000C0000C94E3140C948F020C948F020C948F0206
:1000D0000C948F020C948F020C948F020C948F025C
:1000E0000C948F026E616E00696E660048027002A9
:1000F00086029C024203006E000247003500024463
:10010000000605034603006E000448003500044461
:10011000000435034A03016F0002880036000280A4
:100120000006FF024E03016F00048A0036000480BF
:10013000000402035203016F00088C00360008809F
:1001400000020503560302700002B300370002B03C
:100150000006FC025A0302700004B400370004B029
:10016000000441035E03037100029800380002900E
:10017000000629036203037100049A00380004900A
:1001800000042C036603037100089C0038000890EB
:1001900000022F036A0304720002A800390002A0C3
:1001A000000638036E0304720004AA00390004A09C
:1001B00000043B03720304720008AC00390008A07D
:1001C00000023E0376030573000228013A00022074
:1001D00001064A037A03057300042A013A00042049
:1001E00001044D037E03057300082C013A0008202A
:1001F0000102500382034600450000000233884498
:100200000001440002450008000001F4006E0001F6
:1002100035000100000000010000010000010000A5
:100220008D0384008100FF0003FFDF800001800058
:100230000281000881001014016F00013600018660
:10024000006F002036002081004000009803B200BB
:10025000B10000FF023388B00001B00002B1000815
:10026000000001440170000137000100000000019E
:100270000000010000010000A30394009100FF00B2
:1002800003FFDF90000190000291000891001064CC
:1002900001710001380001960071002038002091A2
:1002A00000403203AE03A400A100FF0003FFDFA063
:1002B0000001A00002A10008A10010940172000139
:1002C000390001A600720020390020A1004044033B
:1002D000B90324012101FF0003FFDF2001012001F8
:1002E00002210108210110C4017300013A00012616
:1002F000017300203A0020210140470355031055A7
:1003000003205503405503805B03015B03025B033D
:10031000045B03085B03105B0320610304610308B3
:10032000610320610340610380670308670310676E
:1003300003206703806D03207303087303107303A6
:1003400020730340790301790302790308790310CC
:100350007903208813250024002300280027002685
:10036000002B002A0029002E002D002C0034003321
:100370000032000201010100010B010A0109017FA5
:100380000B770B204572726F723A25640D0A005587
:1003900073657200576562626F744C696200EE3E6D
:1003A0009C7A9E8EF62E0C78AE1CAA2A3ACEE60ACD
:1003B000B61E387CB86E76DAFC60DAF266B63EE0DD
:1003C000FEE667111D123912F211241208120040C4
:1003D0007A10F35A00A0724E18090010A5D4E80054
:1003E00000E87648170000E40B54020000CA9A3B6C
:1003F000000000E1F50500008096980000004042F2
:100400000F000000A086010000001027000000007F
:10041000E803000000006400000000000A00000083
:1004200000000100000000002C76D888DC674F082F
:1004300023DFC1DFAE59E1B1B796E5E3E453C63A35
:10044000E651997696E8E6C28426EB898C9B62EDAC
:10045000407C6FFCEFBC9C9F40F2BAA56FA5F49066
:10046000055A2AF75C936B6CF9676DC11BFCE0E4DD
:100470000D47FEF520E6B500D0ED902E0300943533
:1004800077050080841E080000204E0A000000C886
:100490000C333333330F986E12831141EF8D2114D7
:1004A000893BE65516CFFEE6DB18D1844B381BF7A7
:1004B0007C1D901DA4BBE424203284725E22810046
:1004C000C9F124ECA1E53D27BC02FB09FD0911247B
:1004D0001FBECFEFD1E2DEBFCDBF12E0A0E0B2E0A1
:1004E000E6E5F9E302C005900D92AA3FB107D9F7FE
:1004F00014E0AAEFB2E001C01D92A734B107E1F702
:1005000014E0CEECD4E004C02297FE010E94A51CAA
:10051000C83CD107C9F70E94EC0D0C942C1A0C941E
:100520000000DF93CF9300D000D0CDB7DEB79A8321
:1005300089837C836B8389819A8181309105A9F4B9
:100540008B819C812FEF8F3F920779F48AEF92E0A5
:100550000E94DA0583E393E00E94BF0688E393E0FC
:1005600021EE33E0B9010E941C070F900F900F900D
:100570000F90CF91DF910895DF93CF93CDB7DEB782
:1005800081E090E06FEF7FEF0E949102CF91DF91C9
:100590000895DF93CF93CDB7DEB728970FB6F894C1
:1005A000DEBF0FBECDBF69837A838B839C832D838F
:1005B0003E834F83588788E393E00E94D60780EA02
:1005C00096E8A1E0B0E0BC01CD0128960FB6F89402
:1005D000DEBF0FBECDBFCF91DF910895DF93CF93E4
:1005E00000D00F92CDB7DEB79A8389836B83E98100
:1005F000FA81808191816B810E94390C0F900F905C
:100600000F90CF91DF910895DF93CF9300D000D06A
:10061000CDB7DEB769837A838B839C838AEF92E0C0
:100620002FEE33E0B9010E94780381EE93E060E0A1
:100630000E94EE0288E393E062E348E853E10E94FF
:10064000600780E090E0A0E0B0E0BC01CD010F9039
:100650000F900F900F90CF91DF910895DF93CF937C
:10066000CDB7DEB70E948008CF91DF910895DF9368
:10067000CF93CDB7DEB7F89481E0CF91DF910895A5
:10068000DF93CF9300D0CDB7DEB79A838983EFE5B0
:10069000F0E0A981BA818C9180830F900F90CF9167
:1006A000DF910895DF93CF9300D0CDB7DEB79A8363
:1006B0008983E981FA8181E08083E981FA8111826D
:1006C0000F900F90CF91DF910895DF93CF9300D0DB
:1006D000CDB7DEB79A838983E981FA8181E080838F
:1006E000E981FA8111820F900F90CF91DF910895E7
:1006F000DF93CF9300D000D0CDB7DEB79A83898344
:100700007C836B83E981FA818B819C8195878487C7
:100710000F900F900F900F90CF91DF910895DF937E
:10072000CF9300D0CDB7DEB79A83898380E00F9056
:100730000F90CF91DF910895DF93CF9300D000D039
:1007400000D0CDB7DEB79C838B837E836D83EB8136
:10075000FC8187A9282F30E0ED81FE818181882FDF
:1007600090E0820F931F0296843191050CF054C0E3
:10077000EB81FC8157A9252F30E0ED81FE8140817E
:100780008B819C81820F931FFC01B2964083852F41
:100790008F5FEB81FC8187ABEB81FC8157A9252F13
:1007A00030E0ED81FE8141818B819C81820F931F1E
:1007B000FC01B2964083852F8F5FEB81FC8187AB74
:1007C0001A8219821FC0EB81FC8167A9462F50E075
:1007D00029813A818D819E81820F931FFC0132967F
:1007E00020818B819C81840F951FFC01B296208310
:1007F000862F8F5FEB81FC8187AB89819A8101967F
:100800009A838983ED81FE818181282F30E089815F
:100810009A8182179307BCF226960FB6F894DEBF32
:100820000FBECDBFCF91DF910895DF93CF93CDB7AA
:10083000DEB728970FB6F894DEBF0FBECDBF9C83FE
:100840008B837E836D8358874F838D819E819A83AE
:10085000898319C0EB81FC810484F585E02D01902A
:10086000F081E02D40815181EB81FC81848595856B
:10087000E981FA812081622FFA01099589819A81A3
:1008800001969A83898329813A818D819E81281BD3
:10089000390B8F81988528173907E4F228960FB60F
:1008A000F894DEBF0FBECDBFCF91DF910895DF93E7
:1008B000CF9300D000D0CDB7DEB79C838B838FEF72
:1008C0009FEF9A83898339C0EB81FC810484F5858D
:1008D000E02D80819181FC01329620813181EB8174
:1008E000FC8184859585F90109959A83898389819D
:1008F0009A812FEF8F3F920729F1EB81FC8186A926
:10090000282F30E08B819C81820F931FFC013E9643
:100910001082EB81FC8186A9282F30E049818B81F0
:100920009C81820F931FFC013E964083EB81FC81EA
:1009300086A98F5FEB81FC8186ABEB81FC8186A968
:10094000843110F280E00F900F900F900F90CF91B4
:10095000DF910895DF93CF9300D00F92CDB7DEB72C
:100960009A8389836B8389819A816B810E941E0C93
:100970000F900F900F90CF91DF910895DF93CF9359
:1009800000D00F92CDB7DEB79A8389836B838B81BA
:10099000882344F4E981FA818485958561E30E9486
:1009A000AA0407C0E981FA818485958560E30E94E5
:1009B000AA048B81882F90E080749070009741F09A
:1009C000E981FA818485958561E30E94AA0407C0C4
:1009D000E981FA818485958560E30E94AA048B8170
:1009E000882F90E080729070009741F0E981FA8141
:1009F0008485958561E30E94AA0407C0E981FA8194
:100A00008485958560E30E94AA048B81882F90E0FD
:100A100080719070009741F0E981FA818485958515
:100A200061E30E94AA0407C0E981FA818485958563
:100A300060E30E94AA04E981FA818485958560E2D9
:100A40000E94AA048B81882F90E088709070009794
:100A500041F0E981FA818485958561E30E94AA04C9
:100A600007C0E981FA818485958560E30E94AA0424
:100A70008B81882F90E084709070009741F0E9811D
:100A8000FA818485958561E30E94AA0407C0E98103
:100A9000FA818485958560E30E94AA048B81882F62
:100AA00090E082709070009741F0E981FA8184852E
:100AB000958561E30E94AA0407C0E981FA818485D3
:100AC000958560E30E94AA048B81882F90E0817055
:100AD0009070882341F0E981FA818485958561E3EE
:100AE0000E94AA0407C0E981FA818485958560E3A4
:100AF0000E94AA04E981FA81848595856AE00E94B2
:100B0000AA040F900F900F90CF91DF910895DF937B
:100B1000CF9300D000D000D0CDB7DEB79E838D83B9
:100B20008D819E810E945704EFE5F0E080818C83E7
:100B30000E9437038B832EC0ED81FE8186A9882316
:100B400041F18D819E816FEF0E94BE041A8219824D
:100B500013C029813A818D819E81820F931FFC01F0
:100B60003E9620818D819E81622F0E94BE048981E4
:100B70009A8101969A838983ED81FE8186A9282F27
:100B800030E089819A81821793071CF3ED81FE8101
:100B900016AA1B828B81882379F6CE0104960E94C7
:100BA000400326960FB6F894DEBF0FBECDBFCF919F
:100BB000DF910895DF93CF9300D0CDB7DEB79A834E
:100BC000898389819A810E946503E981FA8115866A
:100BD0001486E981FA8116AAE981FA8117AA898126
:100BE0009A810E9660E070E044E150E00E94121B92
:100BF00089819A81829660E070E044E150E00E9431
:100C0000121BE981FA8110AE0F900F90CF91DF9106
:100C10000895DF93CF9300D0CDB7DEB79A83898351
:100C200089819A810E946503E981FA81158614867B
:100C3000E981FA8116AAE981FA8117AA89819A8144
:100C40000E9660E070E044E150E00E94121B898142
:100C50009A81829660E070E044E150E00E94121BAD
:100C6000E981FA8110AE0F900F90CF91DF91089536
:100C7000DF93CF9300D00F92CDB7DEB79A838983ED
:100C80006B83E981FA818AE092E091838083E98134
:100C9000FA818B818283E981FA81148213820F9019
:100CA0000F900F90CF91DF910895DF93CF9300D0F5
:100CB0000F92CDB7DEB79A8389836B83E981FA817E
:100CC0008AE092E091838083E981FA818B8182833B
:100CD000E981FA81148213820F900F900F90CF91C7
:100CE000DF910895DF93CF9300D000D0CDB7DEB76A
:100CF0009A8389837C836B83E981FA818B819C81D0
:100D0000948383830F900F900F900F90CF91DF917A
:100D10000895DF93CF9300D000D00F92CDB7DEB708
:100D20009A8389837C836B83EB81FC819081E98149
:100D3000FA8182811D82981711F481E08D838D8163
:100D40000F900F900F900F900F90CF91DF9108951B
:100D5000DF93CF9300D0CDB7DEB79A8389838981A3
:100D60009A8162E00E943806E981FA8184E092E08B
:100D7000918380830F900F90CF91DF910895DF933F
:100D8000CF9300D0CDB7DEB79A83898389819A81CA
:100D900062E00E943806E981FA8184E092E0918362
:100DA00080830F900F90CF91DF910895DF93CF93C1
:100DB00000D000D0CDB7DEB79A8389837C836B8364
:100DC000E981FA81838194812B813C81B9010E9460
:100DD0009C0381E00F900F900F900F90CF91DF91C7
:100DE0000895DF93CF9300D000D0CDB7DEB79A83BC
:100DF00089837C836B83E981FA818B819C819183D8
:100E00008083E981FA8181E88283E981FA818FE731
:100E10008383E981FA8115821482E981FA8117823C
:100E20001682E981FA81118610860F900F900F903B
:100E30000F90CF91DF910895DF93CF9300D000D032
:100E4000CDB7DEB79A8389837C836B83E981FA818E
:100E50008B819C8191838083E981FA8181E88283FF
:100E6000E981FA818FE78383E981FA81158214820F
:100E7000E981FA8117821682E981FA81118610864A
:100E80000F900F900F900F90CF91DF910895DF9307
:100E9000CF9300D000D0CDB7DEB79A8389836B8320
:100EA0004C83E981FA818B818283E981FA818C818B
:100EB00083830F900F900F900F90CF91DF91089543
:100EC000DF93CF93CDB7DEB729970FB6F894DEBF87
:100ED0000FBECDBF9C838B836D835F834E83EB817D
:100EE000FC8192818D8189172CF4EB81FC818281B8
:100EF000898702C08D81898789858D83EB81FC81FB
:100F000093818D8198172CF4EB81FC8183818887F4
:100F100002C08D81888788858D8380E197E29A83DE
:100F20008983EB81FC8181E090E097838683EB816C
:100F3000FC8184E690E09187808729960FB6F8942B
:100F4000DEBF0FBECDBFCF91DF910895DF93CF936A
:100F500000D00F92CDB7DEB79A838983E981FA81F9
:100F6000808591851B82009711F081E08B838B81B6
:100F70000F900F900F90CF91DF910895DF93CF9353
:100F800000D00F92CDB7DEB79A8389836B83E98156
:100F9000FA81808991896B810E94F612882F90E0F6
:100FA0000F900F900F90CF91DF9108950F931F93A3
:100FB000DF93CF93CDB7DEB764970FB6F894DEBF5B
:100FC0000FBECDBF9C8B8B8BEB89FC898085918577
:100FD000009709F472C0EB89FC8924813581EB8983
:100FE000FC8986819781820F931FEB89FC89958309
:100FF0008483EB89FC898481958160ED7AE840E304
:1010000055E721E83FEF0FE710E00E94740C988746
:101010008F831C821B820DC02B813C81CE010996DF
:10102000FC01E20FF31F10828B819C8101969C834F
:101030008B838B819C818A30910574F3CE01099654
:101040009E838D83EB89FC89848195819E01275F36
:101050003F4FB9014AE050E00E94241B9E838D83DC
:101060001A82198212C029813A818D819E81FC01E8
:10107000E20FF31F20818FEE93E0622F0E94BE07E4
:1010800089819A8101969A83898389819A818A309C
:1010900091054CF38FEE93E06DE00E94BE078FEE5A
:1010A00093E06AE00E94BE07EB89FC898085918508
:1010B0000197EB89FC899187808764960FB6F89435
:1010C000DEBF0FBECDBFCF91DF911F910F9108956D
:1010D000682F89E592E00E94540E90E008958BE01D
:1010E00093E090933B0480933A0480913C048C7F7E
:1010F00080933C048AE394E06FEF0E94CA0D089548
:1011000082EB92E00E94010B08958091460290913B
:1011100047026FEF0E947C0D84E192E040E052ECC8
:1011200061E070E00E94211108951F920F920FB6A6
:101130000F9211242F933F934F935F936F937F935D
:101140008F939F93AF93BF93EF93FF93E0914002F0
:10115000F0914102608184E192E00E945512FF917A
:10116000EF91BF91AF919F918F917F916F915F911F
:101170004F913F912F910F900FBE0F901F90189598
:101180001F920F920FB60F9211242F933F934F93FC
:101190005F936F937F938F939F93AF93BF93EF93DF
:1011A000FF9384E192E00E940013FF91EF91BF91C1
:1011B000AF919F918F917F916F915F914F913F91EF
:1011C0002F910F900FBE0F901F90189584E192E021
:1011D0000E946F120895682F84E192E00E94F61237
:1011E00090E00895FC016FB7F894809124019091EC
:1011F00025012091C4033091C5034091C60350914D
:10120000C70320833183428353832091240130918B
:101210002501358324832817390710F0D19B12C08C
:1012200080819181A281B38180509348AF4FBF4F9D
:1012300080839183A283B3838091240190912501BF
:10124000958384836FBF0895EF92FF920F931F934E
:10125000FC01E080F180028113816481758180E06E
:1012600090E020E03DE740E050E00E94FC1B20E0E1
:101270003AEF40E050E00E942F1C2E0D3F1D401F12
:10128000511FB901CA011F910F91FF90EF9008956E
:101290000F931F93DF93CF9300D000D000D0CDB732
:1012A000DEB78E010F5F1F4FC8010E94F208C80110
:1012B0000E94240926960FB6F894DEBF0FBECDBF5C
:1012C000CF91DF911F910F910895D19AE3E7F0E05C
:1012D00080818260808308951F920F920FB60F92D3
:1012E00011242F938F939F93AF93BF938091C40347
:1012F0009091C503A091C603B091C7038050934855
:10130000AF4FBF4F8093C4039093C503A093C60310
:10131000B093C703209135042223B9F1399B35C01E
:101320008091C803882319F081508093C80380916D
:10133000C803882351F580913604882359F4822FFD
:10134000992787FD909597FF03C0909581959F4FB2
:101350008093360427FD02C09FE001C097E02091F2
:101360003704222341F08091360481508093360463
:10137000882309F49EE310923704222319F481E0B4
:10138000809337049093C803319ABF91AF919F9196
:101390008F912F910F900FBE0F901F901895282FAF
:1013A0006115710519F4A0E0B0E002C0DB011297ED
:1013B000ED91FC9111970190F081E02DCD01622F0C
:1013C00009950895009719F4A0E0B0E002C0DC018F
:1013D0001297ED91FC9111970280F381E02DCD01E0
:1013E00009950895862F90E008958FEF9FEF089557
:1013F0008FEF9FEF08950895FFCF8AE394E09093D5
:10140000CC038093CB0383EC92E09093CA03809348
:10141000C90386E492E09093CE038093CD036FECF2
:1014200079E07093DA036093D90342EE59E0509368
:10143000DC034093DB03A3E0A093D4031092DE030C
:101440001092DD038FEC92E09093D0038093CF0352
:1014500089E592E09093E0038093DF0380E792E0D8
:101460009093E2038093E1039093E4038093E3037A
:1014700086E892E09093E6038093E5039093E80377
:101480008093E7038CE992E09093EA038093E90369
:101490009093EC038093EB0382EB92E09093EE0346
:1014A0008093ED037093FA036093F9035093FC0368
:1014B0004093FB03A093F4031092FE031092FD03EC
:1014C00024E132E0309300042093FF03EFEEF3E0D9
:1014D000F0932A02E09329028FED92E091838083BA
:1014E00030930604209305041092070470931304AC
:1014F000609312045093150440931404A0930D04B8
:1015000010921704109216048FEE92E09093090443
:101510008093080408951F93162F80913A049091A8
:101520003B040E94670D882329F08AE394E0612F31
:101530000E94CA0D1F910895FC01828193810E942F
:10154000CA0D0895FC01808991890E94540E90E093
:101550000895FC01808D882329F0868997890E944F
:1015600037130895808991890E946F120895FC01B4
:10157000808991890E946F120895FC018089918968
:101580000E94F61290E0089524EA32E0F901A59154
:10159000B4918EE01A968C931A97E0EAF0E080817D
:1015A00082608083E1EAF0E08081886080838081CE
:1015B0008061808380E49CE99093A7008093A600DB
:1015C00048E050E04D935C93808182608083245D8D
:1015D0003F4FF901A591B49184E01A968C931A9724
:1015E000E1E2F1E080818860808380E09AEF90936F
:1015F0002901809328014D935C93808182608083D0
:1016000008958F929F92AF92BF92CF92DF92EF9206
:10161000FF920F931F93CF93DF936C01DC0112961F
:101620008C91C82FD0E021977E01EE0CFF1C9FE724
:10163000892E93E0992E8CE2A82E47C0D601ED9119
:10164000FC91EE0DFF1D05911491F801D582C48225
:10165000868197810E947210FC01D80155969C9357
:101660008E9354973296B49011969C928E921696C1
:101670008D919C91179760E00E94A30DBA9CC001C8
:1016800011248D5E9D4FFC01A591B4918D919C918B
:10169000D80153969C938E93529718966D917C9196
:1016A00019971A964D915C911B97C8010E949D0B4A
:1016B000C80160E00E94390CC8016FEF0E94590C0C
:1016C0002197EEEFFFEFEE0EFF1EFFEFCF3FDF079C
:1016D00009F0B4CFDF91CF911F910F91FF90EF9060
:1016E000DF90CF90BF90AF909F908F900895FC01B6
:1016F00084899589611162E00E94BE100895EF927D
:10170000FF920F931F93FC01E488F58824853585AB
:1017100006851785862F992787FD909561E87FEFCD
:101720004FE750E00E94BB0CBC01C7010E94E010D3
:101730001F910F91FF90EF9008959F92AF92BF92EB
:10174000CF92DF92EF92FF920F931F93CF93DF938D
:10175000EC017B018A01798768875B874A878C81E6
:101760009D81892B09F45EC09FB6F8948A899B8974
:1017700068EE73E00E941B1C5B01CC24DD24B701E2
:10178000601B710B80E090E0A60195010E94FC1B9C
:1017900024E130E040E050E00E942F1CC901DA0152
:1017A0009C01AD01DA01C901807090700097A1051C
:1017B000B10539F086EE0E94040D2FEF3FEF40E0B7
:1017C00050E03D872C870E0D1F1DB80180E090E092
:1017D000A60195010E94FC1B24E130E040E050E0AE
:1017E0000E942F1CC901DA019C01AD01DA01C90177
:1017F000807090700097A105B10539F086EE0E94C7
:10180000040D2FEF3FEF40E050E03F872E878B81A4
:1018100080FF07C06A8161506A836F5FCE010E94BA
:10182000390C9FBEDF91CF911F910F91FF90EF90E8
:10183000DF90CF90BF90AF909F9008951F93CF936C
:10184000DF93EC01162F6A3039F4E881F9810190B9
:10185000F081E02D6DE00995E881F9810190F0813A
:10186000E02DCE01612F0995CE01DF91CF911F911F
:1018700008951F93CF93DF93EC01162F61380CF47A
:1018800011E8E881F981309779F02591349121159B
:10189000310551F08B8181FD02C0612F02C0612FA3
:1018A0006195CE01F90109951A83DF91CF911F91BE
:1018B0000895DC01962F917013968C9113978E7F6B
:1018C000892B13968C9313978D919C911197009768
:1018D00051F0FC013296259134912115310519F012
:1018E000CD01F901099508954F925F926F927F9211
:1018F0008F929F92AF92BF92CF92DF92EF92FF9220
:101900000F931F932B013A0159017801E21AF30A50
:101910000027F7FC0095102F9C01261B370B44274E
:1019200037FD4095542FC801B7010E94FC1B641875
:101930007508882477FC8094982CA40193010E9458
:10194000511CC901DA01CC24B7FCC094DC2CA80ED0
:10195000B91ECA1EDB1EC5011F910F91FF90EF90AB
:10196000DF90CF90BF90AF909F908F907F906F90BF
:101970005F904F9008954F925F926F927F928F92F7
:101980009F92AF92BF92CF92DF92EF92FF920F930E
:101990001F932B015A0139017801E21AF30A00E082
:1019A00010E09C01261B370B442737FD4095542F30
:1019B000C801B7010E94FC1BA418B508CC24B7FCD1
:1019C000C094DC2CA60195010E94511C8824992406
:1019D000260D371D481D591DC9011F910F91FF90FC
:1019E000EF90DF90CF90BF90AF909F908F907F90BF
:1019F0006F905F904F900895809135040895909373
:101A000039048093380408951F93182F809135046A
:101A1000882309F05AC01093350480913A049091BC
:101A20003B04009749F00E94670D882329F08AE360
:101A300094E060E00E94CA0D8091450490914604B4
:101A4000009709F442C017FF12C000D000D0ADB714
:101A5000BEB712969C938E93119784E993E01496E7
:101A60009C938E9313970E94451B11950CC000D038
:101A700000D0EDB7FEB7928381838FE893E0948323
:101A800083830E94451B00D0EDB7FEB7319680914D
:101A9000450490914604ADB7BEB712969C938E93C1
:101AA000119783E893E093838283812F992787FDA1
:101AB0009095958384830E94451BEDB7FEB73696BB
:101AC0000FB6F894FEBF0FBEEDBF1F9108959C01A5
:101AD000009781F0FC01859194910296FC01A591FB
:101AE000B4912E5F3F4FF90194918C91892311F0AD
:101AF0008FEF089580E00895CF93DF939C010097C6
:101B0000F9F0FC0145915491CA010296FC01A5919E
:101B1000B491FA01C591D4912E5F3F4FF901949190
:101B20003FB7F8948C91292F209582238C936623BC
:101B300019F08881892B02C08881822388833FBF66
:101B4000DF91CF910895CF93DF939C010097F9F037
:101B5000FC0145915491CA010296FC01C591D491B2
:101B6000FA01A591B4912E5F3F4FF90124913FB73F
:101B7000F894662319F08C91822B04C08C91922FDB
:101B8000909589238C938881822B88833FBFDF9136
:101B9000CF9108951F93CF93DF93EC01162F888187
:101BA00099810097A9F03A8130FD05C020E06623B5
:101BB00009F421E0122F31FD06C0612F0E94A30D10
:101BC0008A8182608A8388819981612F0E94EA13C9
:101BD000DF91CF911F9108950E946F080E94C40A5F
:101BE0000E94650978940E9485080E942E030E9435
:101BF000480960931C0470931D0480931E04909305
:101C00001F040E94040360932004709321048093B6
:101C100022049093230478940E94961380912004C8
:101C200090912104A0912204B09123040097A10572
:101C3000B10519F416C00E94961360911C047091AE
:101C40001D0480911E0490911F0420912004309166
:101C5000210440912204509123040E944B138823B5
:101C600051F30E9448099B01AC0160931C047093DE
:101C70001D0480931E0490931F04609118047091BA
:101C8000190480911A0490911B046F5F7F4F8F4F4E
:101C90009F4F609318047093190480931A049093D3
:101CA0001B040E94C902AFCFCF92DF92EF92FF9246
:101CB0000F931F93CF93DF93EC01D62E8C819D81E0
:101CC000892BA9F58A859B8501960E9427199D83FA
:101CD0008C83009761F120E030E007C0EC81FD814A
:101CE000E20FF31F10822F5F3F4F8A859B8582177B
:101CF0009307A0F7198618861F821E828C898E7F13
:101D00008C8B00E010E00EC0C801880F991FE8819D
:101D1000F981E80FF91F8591949160E20E94B10F5B
:101D20000F5F1F4F8A819B810817190768F3EC81A9
:101D3000FD81309709F43EC08AE0D81619F58885F0
:101D40009985E80FF91F108219861886CFB6F89486
:101D50008C8980FD15C08C8981608C8B8C898D7FEE
:101D60008C8B1F821E820E9448099B01AC01EC846F
:101D7000FD840E851F8584EE9EE0BE010E9407153E
:101D8000CFBE18C08DE0D816A9F0288539858A8580
:101D90009B852817390770F4E20FF31F2FB7F894CB
:101DA000D0821182888599850196998788871F82BC
:101DB0001E822FBF8D2DDF91CF911F910F91FF902C
:101DC000EF90DF90CF9008952F923F924F925F92C5
:101DD0006F927F928F929F92AF92BF92CF92DF923B
:101DE000EF92FF920F931F93CF93DF93382E292EFC
:101DF0002A013B01C82FD92F0C811D818E819F8123
:101E0000080F191FF80180808C89869581708820C1
:101E100029F4A888B988CA88DB8804C0AC84BD844A
:101E2000CE84DF848823D1F48820C1F0F801329178
:101E30008F010F5F1F4F4A815B81F80180E090E0C6
:101E400007C02081222351F0231741F431960196D7
:101E500084179507B0F399249A9401C099248C892A
:101E600086958170292D332727FD309590E028171E
:101E70003907C1F0A601950162E05695479537955F
:101E800027956A95D1F7992D92708C898D7F892B32
:101E90008C8B992019F059016A0104C0A21AB30A67
:101EA000C40AD50AEE24FF2418C0C701880F991F61
:101EB000E881F981E80FF91F85919491992039F40F
:101EC000F8016081662319F00F5F1F4F01C060E2C7
:101ED0000E94B10F0894E11CF11C8A819B81E816D5
:101EE000F90618F38820B1F41F821E828889998927
:101EF000AA89BB890097A105B10529F0EC81FD8174
:101F00008081882319F48C898E7F02C08C898D7F13
:101F10008C8B07C0992029F48E819F8101969F8325
:101F20008E838C8980FF0AC084EE9EE0632D722D23
:101F3000A3019201860175010E940715DF91CF91DF
:101F40001F910F91FF90EF90DF90CF90BF90AF90D7
:101F50009F908F907F906F905F904F903F902F90C9
:101F60000895EF92FF920F931F93CF93DF938C010D
:101F7000E62EFC01808981FD12C0C0E0D0E0F801AE
:101F8000EC0FFD1F8081918160E00E94A30D2296DD
:101F9000C031D105A1F7F80180898260808B8E2D38
:101FA0000E943710F82E80FF07C0F80186859785BC
:101FB000892B11F480E1F82EF801808980FFF094DC
:101FC000C0E0D0E0F801EC0FFD1F80819181F7FEA9
:101FD00003C00E94C61302C00E94A1132296C03102
:101FE000D10511F0FF0CEECF8E2DDF91CF911F9117
:101FF0000F91FF90EF900895EF92FF920F931F9330
:10200000CF93DF938C01E62EF42EFC01808981FDB5
:1020100012C0C0E0D0E0F801EC0FFD1F808191817B
:1020200060E00E94A30D2296C031D105A1F7F8010E
:1020300080898260808BF801808980FD06C0FF2046
:1020400019F4FF24FA9401C0FF24EE2DF0E0EE0F06
:10205000FF1FE00FF11F808191816F2D0E94EA1315
:10206000DF91CF911F910F91FF90EF900895E82F8E
:1020700081548A3128F4F0E0E35AFC4F84910895AA
:102080008E2F81568A3128F4F0E0E35CFC4F849176
:1020900008958E2F80538A3028F4F0E0E857FC4FE3
:1020A00084910895EA3028F4F0E0E854FC4F8491DC
:1020B0000895ED3211F482E00895EB3579F0EB37B5
:1020C00069F0E83259F0ED3559F0ED3749F0E93271
:1020D00039F080E0EE3229F481E008958CE908952A
:1020E00080EF0895BF92CF92DF92EF92FF920F930D
:1020F0001F93CF93DF936C01B090BE0224EF31E0C9
:1021000090E0C0E0D0E02DC0285F3F4FF901E4909F
:1021100028503040F90177962A5F3F4F80E0A0E0D9
:10212000B0E005911491F901F4902650304014C0AC
:10213000B8016A0F7B1FFB013E96459154914115F2
:10214000510541F04C155D0529F4FF2011F0EB011C
:102150000AC0EB018F5F50968E1550F39F5F245D90
:102160003F4F9B1588F2CE01DF91CF911F910F91C8
:10217000FF90EF90DF90CF90BF9008959C010B9659
:10218000FC01A591B491235F3F4FF901249170E0C8
:10219000022E02C0660F771F0A94E2F781E090E0FA
:1021A00002C0880F991F2A95E2F7282F220F282BAB
:1021B0009C91822F862320952923822B8C9308952E
:1021C000CF93DF939C012E5F3F4FF9018491225002
:1021D00030409CE2899FA00111244C505E4F485F23
:1021E0005F4FFA018491485050408823C1F0C901E3
:1021F0000696FC01C591D491FA013696E491EE233E
:1022000019F0798368830EC06F3F710531F028F0B3
:102210008EEF0E94040D6FEF70E0688303C08DEFB6
:102220000E94040DDF91CF910895DC0119968D91E4
:102230009C911A97FC0125913491CD01F9010995E2
:102240000895DF92EF92FF920F931F93CF93DF9346
:10225000EC017A018B01DFB6F8942D853E858F85E0
:1022600098892817390711F080E001C08FEF8F8B14
:10227000882381F02D853E858F8598892817390719
:1022800021F0C90160E00E947C0D8F8598896FEF75
:102290000E947C0D88858160888788858B7F8887F0
:1022A00088858D7F888789859A850496FC0125918C
:1022B0003491CE01B801A701F9010995DFBEDF9184
:1022C000CF911F910F91FF90EF90DF900895BF92F3
:1022D000CF92DF92EF92FF920F931F93CF93DF93F2
:1022E0007A018B01EC01BFB6F8944F3F8FEF58078E
:1022F0008FEF68078FEF780721F4A1E0CA2ED12C69
:1023000024C0CB01BA01F3E0660F771F881F991F25
:10231000FA95D1F720910C0230910D0240910E02F6
:1023200050910F02620F731F841F951FA801970120
:10233000E4E0220F331F441F551FEA95D1F70E9496
:102340002F1C69010894C108D10898A99923C9F1E3
:10235000ECA1FDA180819095892380838FEFE81601
:102360008FEFF8068FEF08078FEF180719F421E0B9
:1023700030E01DC032E0EE0CFF1C001F111F3A952B
:10238000D1F760910C0270910D0280910E02909134
:102390000F026E0D7F1D801F911FEE0CFF1C001F92
:1023A000111FA80197010E942F1C215030402C15AD
:1023B0003D0538F0ECA1FDA1808198A9892B80838F
:1023C0006901E8A5F9A5C082EAA5FBA5D082BFBE38
:1023D000DF91CF911F910F91FF90EF90DF90CF9001
:1023E000BF900895DC019696ED91FC9197978081BE
:1023F00087728083D0969C91D097992341F09496D0
:10240000ED91FC9195978081909589238083089523
:10241000DC0157968C915797882371F09696ED9131
:10242000FC9197978081877B80839696ED91FC91B4
:1024300097978081806980830895DC019C96ED9157
:10244000FC919D9760830895DC0157968C91579776
:10245000882371F09696ED91FC91979780818F7605
:1024600080839696ED91FC91979780818864808314
:102470000895CF93DF93EC010E9415118F89882373
:1024800011F020E90CC08D859E85892B11F020E983
:1024900001C020E08F859889892B09F02864EEA17E
:1024A000FFA12083DF91CF910895DC01262F1496A0
:1024B0008D919C911597892B59F01496ED91FC9173
:1024C000159716966D917C911797822F099508950F
:1024D0009096ED91FC919197CD0109950895FC019D
:1024E00022A133A1F90109950895FC014FB7F89491
:1024F000238534858FEF9FEF948783874FBFC90172
:102500000895FC01838594858F5F9F4F29F4862F62
:1025100090E094878387089580858460808785EF25
:102520000E94040D0895DC0119968D919C911A97D3
:102530000296FC0125913491CD01F9010995089588
:10254000CF93DF93EC0188858E7F8887E88DF98DA6
:10255000309721F08A8D9B8D6FEF0995E985FA857B
:102560003896259134912115310519F0CE01F901E4
:102570000995DF91CF910895CF93DF93EC01888582
:1025800081608887E985FA853A96259134912115ED
:10259000310519F0CE01F9010995E88DF98D3097D3
:1025A00021F08A8D9B8D60E00995DF91CF91089590
:1025B000EF92FF920F931F93CF93DF938C017B01D8
:1025C000EA010BC0D7016D917D01D8015C96ED91B8
:1025D000FC915D97C80109952197209799F7DF91A4
:1025E000CF911F910F91FF90EF9008951F93FC01E1
:1025F000162F248D358DF9010995812F1F9108958E
:10260000FC01268D378DF901099508951F931FB799
:10261000F8940E94BC121FBF1F9108950F931F933F
:10262000CF93DF93062FEC0102C00E94961388859A
:1026300080FFFBCF1FB7F894CE010E94A012CE01FD
:10264000602F0E9493121FBFDF91CF911F910F91B6
:102650000895DC019696ED91FC919797662319F009
:1026600080818F7702C08081806880830895DC013B
:102670009496ED91FC919597808187FD03C02FEF93
:102680003FEF07C09C96ED91FC919D978081282F8C
:1026900030E0C90108950F931F9300E010E00E94FD
:1026A00054131F910F9108958F929F92AF92BF92F2
:1026B000CF92DF92EF92FF920F931F93CF93DF930E
:1026C0006B017C0149015A01E8010E9448096C191B
:1026D0007D098E099F09681579058A059B0568F0B3
:1026E0000115110541F0681979098A099B09688368
:1026F00079838A839B838FEF0CC00115110541F00C
:10270000861A970AA80AB90A88829982AA82BB8285
:1027100080E0DF91CF911F910F91FF90EF90DF90BC
:10272000CF90BF90AF909F908F9008958FB778947F
:1027300000000000000000000000000000008FBF4B
:102740000895CF93DF939C010097E9F0FC018591F8
:102750009491FC01A591B4910296FC01C591D4918C
:102760002E5F3F4FF90124918881822349F09FB762
:10277000F8948C91209582238C939FBF000003C016
:1027800087EF0E94040DDF91CF910895CF93DF93DF
:102790009C010097E1F0FC0185919491FC01A591C9
:1027A000B4910296FC01C591D4912E5F3F4FF9017F
:1027B00024918881822341F09FB7F8948C91822BD9
:1027C0008C939FBF000003C087EF0E94040DDF9130
:1027D000CF910895662319F00E94C61308950E94B0
:1027E000A11308952F923F924F925F926F927F9222
:1027F0008F929F92AF92BF92CF92DF92EF92FF9211
:102800000F931F93DF93CF93CDB7DEB727970FB604
:10281000F894DEBF0FBECDBF809173008B7F809395
:1028200073002FB72F8378948FEF80933104109229
:1028300032048091F302A82FB0E01197BE83AD83DC
:10284000EDE0F0E0AE9F5001AF9FB00CBE9FB00C2A
:10285000112424E234E0A20EB31E6624772443013F
:102860005AC0D5018C91882309F44CC019962D903B
:102870003D904D905C901C971596CD90DD90ED901D
:10288000FC901897C201B101A70196018E010F5F5C
:102890001F4F0E945413882319F1D5011196ED9111
:1028A000FC91129713968D919C9114971C922091F4
:1028B0003304309134042150304030933404209359
:1028C0003304C20CD31CE41CF51C09811A812B8132
:1028D0003C81B701A6010995BFEFB093320412C045
:1028E000611471048104910449F089819A81AB815A
:1028F000BC8186159705A805B90520F469807A8002
:102900008B809C80ED81FE813197FE83ED8323EFE8
:102910003FEFA20EB31E8D819E818F5F9F4F09F006
:10292000A0CF80913204882309F081CF1092310426
:102930008091330490913404181619064CF52091B7
:10294000240130912501D401C301880F991FAA1FCA
:10295000BB1F8130EAEF9E07E0E0AE07E0E0BE0774
:1029600020F080E09AEFA0E0B0E0820F931F02C059
:1029700080509A4FFAEF80309F07D0F790932B0149
:1029800080932A01D29A80917300846080937300AF
:102990002F812FBF27960FB6F894DEBF0FBECDBF95
:1029A000CF91DF911F910F91FF90EF90DF90CF902B
:1029B000BF90AF909F908F907F906F905F904F905F
:1029C0003F902F9008951F920F920FB60F921124EF
:1029D0002F933F934F935F936F937F938F939F9327
:1029E000AF93BF93EF93FF930E94F213FF91EF9188
:1029F000BF91AF919F918F917F916F915F914F9117
:102A00003F912F910F900FBE0F901F9018952F920E
:102A10003F924F925F926F927F928F929F92AF926E
:102A2000BF92CF92DF92EF92FF920F931F93DF93AB
:102A3000CF9300D000D0CDB7DEB71C012B014901E8
:102A40005A016701780188EEC81683E0D80680E055
:102A5000E80680E0F80638F4809131048823C1F15B
:102A60008FEF809332046FB7F8948091F302482F70
:102A700050E0A4E2B4E020E030E020C0FD018C9101
:102A80001D968823C9F48FEF80833282218254827D
:102A9000438281869286A386B486C582D682E782E7
:102AA000F08680913304909134040196909334041D
:102AB000809333048FEF06C02F5F3F4F24173507F5
:102AC000ECF280E06FBF8823F1F48FEF0E94040DD9
:102AD0003E010894611C711CC501B401A701960157
:102AE00083010E9454138823B9F3C80CD91CEA1C33
:102AF000FB1C09811A812B813C81C201B701A6010F
:102B0000F101099506C080913104882311F40E94D7
:102B1000F2130F900F900F900F90CF91DF911F91B4
:102B20000F91FF90EF90DF90CF90BF90AF909F906C
:102B30008F907F906F905F904F903F902F9008956F
:102B4000A1E1B0E0E6EAF5E10C946C1C3C017F8762
:102B50006E876A01FC0117821682838181FD03C0A2
:102B60006FEF7FEF6FC39E012F5F3F4F398B288B35
:102B7000F3012381EE85FF8523FD859123FF81915C
:102B8000FF87EE87882309F45AC3853251F4EE8516
:102B9000FF8523FD859123FF8191FF87EE87853295
:102BA00029F490E0B3010E94621BE2CF982F10E05D
:102BB000882499241032B0F49B3269F09C3228F4B6
:102BC000903251F0933271F40BC09D3239F0903352
:102BD00049F4116028C01260146025C0186023C039
:102BE000106121C017FD2AC0892F80538A3078F4E4
:102BF00016FF06C0FAE09F9E902C1124980E13C079
:102C00003AE0839E802C1124880E10620CC09E3204
:102C100021F416FD14C3106406C09C3611F410682C
:102C200002C0983659F4EE85FF8523FD959123FF68
:102C30009191FF87EE87992309F0BCCF892F8554A6
:102C4000833020F4812F8061905E07C0892F8556E4
:102C5000833008F09FC1812F8F7E86FD02C076E011
:102C6000972E6FE3F62EF822953619F4F0E4FF2A3A
:102C700007C0963619F420E8F22A02C091109A94FF
:102C8000F7FE0AC03BE3391518F45CE3B52E02C029
:102C9000B92CB39427E009C047E0491520F4BB24C0
:102CA00047E0942EF7CF292DBB24C60104969D87BB
:102CB0008C87F6016081718182819381AE014F5FC3
:102CC0005F4F0B2D0E942F1A6C010981202E332497
:102CD00000FF04C003FD02C01DE209C0F1FE02C0F6
:102CE0001BE205C0F2FC02C010E001C010E2C1010D
:102CF0008C709070892BB9F1112311F483E001C01D
:102D000084E0881510F088240AC0881AF3FC07C0F4
:102D100080E290E0B3010E94621B8A94C9F71123FC
:102D200029F0812F90E0B3010E94621B23FE03C0B3
:102D300004EE10E00EC008EE10E00BC0E114F10448
:102D400009F0805290E0B3010E94621B0F5F1F4F99
:102D500005C0EF2CFF24F0E1EF22FF24F80184915D
:102D6000882361F714C1F7FE12C0BC0C24FE04C016
:102D70008A81813309F4BA941B141CF0BB24B394E8
:102D80002DC0F8E0FB1550F538E0B32E27C0F6FC57
:102D900025C0892D90E08C159D054CF02CEFC216B6
:102DA0002FEFD20624F030E8F32A01C09A9499203C
:102DB00049F0E2E0F0E0EC0FFD1FE90DF11D80812C
:102DC0008033A1F3F7FE0AC0B92CB394892D90E0AB
:102DD000C816D90614F0992401C09C18F7FC03C04A
:102DE00025E030E009C01C141D041CF021E030E097
:102DF00003C096012F5F3F4F112311F02F5F3F4F0C
:102E0000992029F0892D90E00196280F391F882DEF
:102E100090E02817390714F0882401C0821A4F2C3B
:102E20005524C20189709070892B39F008C080E266
:102E300090E0B3010E94621B8A948820C1F711239D
:102E400029F0812F90E0B3010E94621B43FE07C06E
:102E500008C080E390E0B3010E94621B8A9488203E
:102E6000C1F7F7FE46C08601D7FE02C000E010E0C1
:102E700076010894E11CF11CE01AF10A41E050E0EF
:102E80004C0F5D1FE40EF51E26014B185108892DCD
:102E900090E0AA24BB24A81AB90A5FEF0F3F1507D8
:102EA00029F48EE290E0B3010E94621BC016D106A5
:102EB00034F0401651061CF4F701808101C080E314
:102EC000015010400894E11CF11C0A151B052CF060
:102ED00090E0B3010E94621BE0CF0C151D0539F490
:102EE0009A81963318F4953311F424FE81E390E02F
:102EF0004BC08A81813309F00F7E90E0B3010E94BC
:102F0000621B9920A1F08EE290E0B3010E94621B47
:102F100012E0E1E0F0E0EC0FFD1FE10FF11D1F5F9B
:102F2000808190E0B3010E94621B9A9491F744FC67
:102F300003C085E690E002C085E490E0B3010E9402
:102F4000621BD7FC05C0C114D10441F404FF06C0C4
:102F5000D094C194D108D3948DE201C08BE290E06B
:102F6000B3010E94621B80E305C08F5F26EF3FEF35
:102F7000C20ED31E3AE0C316D104BCF790E0B301F1
:102F80000E94621BC601C096B3010E94621BCC84E2
:102F9000DD8452C1933631F0933799F0933509F0BF
:102FA00059C023C0F601808189835E010894A11C69
:102FB000B11C22E030E0C20ED31E21E0E22EF12C43
:102FC00012C0F601A080B18016FD03C06FEF7FEF45
:102FD00002C0692D70E022E030E0C20ED31EC501B0
:102FE0000E94191B7C011F7713C0F601A080B180DD
:102FF00016FD03C06FEF7FEF02C0692D70E022E085
:1030000030E0C20ED31EC5010E94071B7C01106870
:1030100013FF07C01BC080E290E0B3010E94621B57
:103020008A94882D90E0E816F906A8F30FC0F50100
:1030300017FD859117FF81915F0190E0B3010E9418
:10304000621B81108A940894E108F108E114F104EC
:1030500071F7F2C0943611F0993689F517FF08C060
:10306000F601208131814281538184E090E00AC0E1
:10307000F601808191819C01442737FD4095542FB2
:1030800082E090E0C80ED91E9FE6F92EF12257FF8C
:1030900009C050954095309521953F4F4F4F5F4F58
:1030A00090E8F92ACA01B901AE014F5F5F4F2AE0EB
:1030B00030E00E948E1BE82EE889EE1A41C0953759
:1030C00021F41F7E2AE030E01CC0197F9F3661F09A
:1030D000903720F4983509F0B2C00FC0903739F01E
:1030E000983709F0ACC004C028E030E00AC0106195
:1030F00014FD146020E130E004C014FD166020E1EE
:1031000032E017FF08C0F6016081718182819381EE
:1031100044E050E008C0F60180819181BC0180E06C
:1031200090E042E050E0C40ED51EAE014F5F5F4F0D
:103130000E948E1BE82E5889E51A8FE7F82EF1229F
:10314000F6FE0BC08EEFF822E91438F4F4FE07C047
:10315000F2FC05C09FEEF92202C01E2D01C0192D00
:10316000F4FE0DC0FE01EE0DF11D8081803319F4D7
:10317000E9EEFE2208C01F5FF2FE05C003C08F2DDE
:10318000867809F01F5F0F2DF3FC14C0F0FE0FC00E
:10319000181510F09E2C0BC09E2C980C911A182D0F
:1031A00006C080E290E0B3010E94621B1F5F181509
:1031B000C0F304C0181510F4811A01C0882404FF5C
:1031C0000FC080E390E0B3010E94621B02FF1DC0AC
:1031D00001FD03C088E790E00EC088E590E00BC0D9
:1031E000802F867891F001FF02C08BE201C080E25F
:1031F000F7FC8DE290E0B3010E94621B06C080E301
:1032000090E0B3010E94621B9A94E914C0F3EA941F
:10321000E1E0F0E0EC0FFD1FEE0DF11D808190E08C
:10322000B3010E94621BEE2091F706C080E290E09D
:10323000B3010E94621B8A948820C1F799CCF301E4
:1032400066817781CB016196E2E10C94881CCF9373
:10325000DF93BC018230910510F462E070E0A09130
:103260003F04B0914004ED01E0E0F0E040E050E0C8
:1032700021C0888199818617970769F48A819B818B
:10328000309719F09383828304C090934004809315
:103290003F04FE0134C06817790738F44115510521
:1032A00019F08417950708F4AC01FE018A819B810F
:1032B0009C01E9012097E9F641155105A9F1CA01E0
:1032C000861B970B049708F4BA01E0E0F0E02AC0EF
:1032D0008D919C91119784179507F9F464177507E0
:1032E00081F412968D919C911397309719F09383E6
:1032F000828304C09093400480933F04FD01329682
:103300004FC0CA01861B970BFD01E80FF91F61939F
:10331000719302978D939C9343C0FD0182819381A9
:103320009C01D9011097A1F680913D0490913E0433
:10333000892B41F48091F6029091F70290933E041C
:1033400080933D044091F8025091F90241155105D6
:1033500041F44DB75EB78091F4029091F502481B9D
:10336000590B20913D0430913E0424173507B0F4E9
:10337000CA01821B930B8617970780F0AB014E5F43
:103380005F4F8417950750F0420F531F50933E0430
:1033900040933D04F9016193719302C0E0E0F0E0D5
:1033A000CF01DF91CF910895CF93DF93009709F478
:1033B00050C0EC0122971B821A82A0913F04B09169
:1033C0004004109709F140E050E0AC17BD0708F148
:1033D000BB83AA83FE0121913191E20FF31FAE1747
:1033E000BF0779F48D919C911197280F391F2E5F9B
:1033F0003F4F3983288312968D919C9113979B831D
:103400008A834115510571F4D0934004C0933F0461
:1034100020C012968D919C911397AD01009711F0E9
:10342000DC01D3CFFA01D383C28321913191E20F22
:10343000F31FCE17DF0769F488819981280F391FA0
:103440002E5F3F4FFA01318320838A819B819383D2
:103450008283DF91CF910895F8940C94A91C2830B1
:1034600008F027E03327DA01990F311D87FD9160BD
:1034700000966105710539F432602E5F3D9330E3AB
:103480002A95E1F708959F3F30F080387105610576
:1034900009F03C5F3C5F3D93913008F08068911DDE
:1034A000DF93CF931F930F93FF92EF92192F987F83
:1034B0009695E92F96959695E90FFF27E85DFB4FC6
:1034C00099273327EE24FF24A701E70105900894EC
:1034D000079428F4360FE71EF81E491F511D660F8A
:1034E000771F881F991F0694A1F70590079428F469
:1034F000E70EF81E491F561FC11D770F881F991F21
:10350000661F0694A1F70590079428F4F80E491F4A
:10351000561FC71FD11D880F991F661F771F06945E
:10352000A1F70590079420F4490F561FC71FD81F15
:10353000990F661F771F881F0694A9F7849110952D
:10354000177041F0D695C79557954795F794E7942E
:103550001A95C1F7EEECF3E068941590159135914A
:103560006591959105907FE27395E118F10A430BFF
:10357000560BC90BD009C0F7E10CF11E431F561FB3
:10358000C91FD01D7EF4703311F48A95E6CFE894FC
:10359000015030F0080F0AF40027021708F4202F1A
:1035A0002395022F7A3328F079E37D932A95E9F762
:1035B00010C07D932A9589F606949795679537955F
:1035C00017951794E118F10A430B560BC90BD00954
:1035D00098F023957E9173957A3308F070E37C938D
:1035E0002013B8F77E9170617D9330F0839571E37D
:1035F0007D9370E32A95E1F71124EF90FF900F91EE
:103600001F91CF91DF91992787FD90950895FC0137
:103610000590615070400110D8F7809590958E0FFD
:103620009F1F0895DC0101C06D9341505040E0F7A9
:103630000895FC016150704001900110D8F7809509
:1036400090958E0F9F1F0895FB019F01E8944230D3
:10365000C4F04532B4F44A3029F497FB1EF4909537
:1036600081959F4F642F77270E941B1C805D8A33B2
:103670000CF0895D8193CB010097A1F716F45DE210
:1036800051931082C9010C94EC1BA0E0B0E0EBE474
:10369000FBE10C947A1C0F8118859E01255F3F4F3A
:1036A000F801838188608383C80169857A85A901CF
:1036B0000E94A015F8012381277F23832096E4E050
:1036C0000C94961C0F931F93CF93DF938C01EB0107
:1036D0008B8181FF1BC082FF0DC02E813F818C81B9
:1036E0009D812817390764F4E881F9810193F983F2
:1036F000E88306C0E885F985802F0995892B31F488
:103700008E819F8101969F838E8302C00FEF1FEFF2
:10371000C801DF91CF911F910F910895FA01AA2757
:10372000283051F1203181F1E8946F936E7F6E5F04
:103730007F4F8F4F9F4FAF4FB1E03ED0B4E03CD0B2
:10374000670F781F891F9A1FA11D680F791F8A1F95
:10375000911DA11D6A0F711D811D911DA11D20D0FC
:1037600009F468943F912AE0269F11243019305DB6
:103770003193DEF6CF010895462F4770405D4193A7
:10378000B3E00FD0C9F7F6CF462F4F70405D4A33F4
:1037900018F0495D31FD4052419302D0A9F7EACFBC
:1037A000B4E0A6959795879577956795BA95C9F7EB
:1037B00000976105710508959B01AC010A2E0694DE
:1037C0005795479537952795BA95C9F7620F731F97
:1037D000841F951FA01D0895DC01FC01672F7191C6
:1037E0007723E1F7329704C07C916D9370836291E7
:1037F000AE17BF07C8F30895629FD001739FF00111
:10380000829FE00DF11D649FE00DF11D929FF00D70
:10381000839FF00D749FF00D659FF00D9927729FA7
:10382000B00DE11DF91F639FB00DE11DF91FBD0132
:10383000CF0111240895AA1BBB1B51E107C0AA1F89
:10384000BB1FA617B70710F0A61BB70B881F991F41
:103850005A95A9F780959095BC01CD010895A1E2F4
:103860001A2EAA1BBB1BFD010DC0AA1FBB1FEE1FFA
:10387000FF1FA217B307E407F50720F0A21BB30B45
:10388000E40BF50B661F771F881F991F1A9469F7C1
:1038900060957095809590959B01AC01BD01CF011D
:1038A000089597FB092E05260ED057FD04D0D7DFCB
:1038B0000AD0001C38F450954095309521953F4F23
:1038C0004F4F5F4F0895F6F79095809570956195ED
:1038D0007F4F8F4F9F4F08952F923F924F925F924D
:1038E0006F927F928F929F92AF92BF92CF92DF9210
:1038F000EF92FF920F931F93CF93DF93CDB7DEB775
:10390000CA1BDB0B0FB6F894DEBF0FBECDBF099408
:103910002A88398848885F846E847D848C849B845F
:10392000AA84B984C884DF80EE80FD800C811B816D
:10393000AA81B981CE0FD11D0FB6F894DEBF0FBE9C
:10394000CDBFED010895EE0FFF1F0590F491E02D1E
:063950000994F894FFCF7A
:1039560000000000D60600000000FC090024F40068
:10396600803E1000000000000000000000C203FFBF
:10397600FF1A031D03E608EB080000000000000024
:103986000E13061381127512C800C900CC00CD00B3
:10399600CE0000000210200311030E0308032303C8
:1039A600260314031703000000EC000100000000CA
:1039B600000000280020A1070080841E000068087F
:1039C6000000800000003803AA0552030000000032
:1039D6000000000000000000800000003B03AA0574
:1039E60052030000000000000000000000008000FC
:1039F60000003E03AA05520300000000000000007C
:103A06000000EE00030000000000000000000600B9
:103A16000000008B0A000000009C0A00000000A2C3
:103A26000AF80900000000FC09FC0900000000BEBD
:103A360007A90A00000000BE07B70A00000000F24E
:0A3A460009F5090120004704000003
:00000001FF
