S00C0000626574612E737265637C
S11300000C9468020C9490020C9490020C9490024C
S11300100C9490020C9490020C9490020C94900214
S11300200C9490020C9490020C9490020C94900204
S11300300C9490020C9490020C9490020C949002F4
S11300400C9490020C9490020C9490020C949002E4
S11300500C9490020C9490020C9490020C949002D4
S11300600C9490020C9490020C9490020C949002C4
S11300700C9490020C9490020C9490020C949002B4
S11300800C9490020C9490020C9490020C949002A4
S11300900C94870E0C9490020C94B20E0C94900263
S11300A00C9490020C9490020C9490020C94900284
S11300B00C9490020C9490020C9490020C945E0F99
S11300C00C94971B0C9490020C9490020C94900244
S11300D00C9490020C9490020C9490020C94900254
S11300E00C9490026E616E00696E66006902910262
S11300F0A702BD025F03006E000247003500024400
S1130100000605036303006E000448003500044440
S1130110000435036703016F000288003600028083
S11301200006FF026B03016F00048A00360004809E
S1130130000402036F03016F00088C00360008807E
S113014000020503730302700002B300370002B01B
S11301500006FC02770302700004B400370004B008
S1130160000441037B0303710002980038000290ED
S1130170000629037F03037100049A0038000490E9
S113018000042C038303037100089C0038000890CA
S113019000022F03870304720002A800390002A0A2
S11301A0000638038B0304720004AA00390004A07B
S11301B000043B038F0304720008AC00390008A05C
S11301C000023E0393030573000228013A00022053
S11301D001064A039703057300042A013A00042028
S11301E001044D039B03057300082C013A00082009
S11301F0010250039F034600450000000233884477
S11302000001440002450008000001F4006E0001F2
S113021035000100000000010000010000010000A1
S1130220AA0384008100FF0003FFDF800001800037
S11302300281000881001014016F0001360001865C
S1130240006F00203600208100400000B503B2009A
S1130250B10000FF023388B00001B00002B1000811
S1130260000001440170000137000100000000019A
S11302700000010000010000C00394009100FF0091
S113028003FFDF90000190000291000891001064C8
S1130290017100013800019600710020380020919E
S11302A000403203CB03A400A100FF0003FFDFA042
S11302B00001A00002A10008A10010940172000135
S11302C0390001A600720020390020A10040440337
S11302D0D60324012101FF0003FFDF2001012001D7
S11302E002210108210110C4017300013A00012612
S11302F0017300203A0020210140470355031055A3
S113030003205503405503805B03015B03025B0339
S1130310045B03085B03105B0320610304610308AF
S1130320610320610340610380670308670310676A
S113033003206703806D03207303087303107303A2
S113034020730340790301790302790308790310C8
S11303507903208813250024002300280027002681
S1130360002B002A0029002E002D002C003400331D
S11303700032000201010100010B010A01090171AF
S1130380116911204572726F723A25640D0A005585
S113039073657200576562626F744C696200EE3E69
S11303A09C7A9E8EF62E0C78AE1CAA2A3ACEE60AC9
S11303B0B61E387CB86E76DAFC60DAF266B63EE0D9
S11303C0FEE60018B618D2188B18BD18A118004004
S11303D07A10F35A00A0724E18090010A5D4E80050
S11303E000E87648170000E40B54020000CA9A3B68
S11303F0000000E1F50500008096980000004042EE
S11304000F000000A086010000001027000000007B
S1130410E803000000006400000000000A0000007F
S113042000000100000000002C76D888DC674F082B
S113043023DFC1DFAE59E1B1B796E5E3E453C63A31
S1130440E651997696E8E6C28426EB898C9B62EDA8
S1130450407C6FFCEFBC9C9F40F2BAA56FA5F49062
S1130460055A2AF75C936B6CF9676DC11BFCE0E4D9
S11304700D47FEF520E6B500D0ED902E030094352F
S113048077050080841E080000204E0A000000C882
S11304900C333333330F986E12831141EF8D2114D3
S11304A0893BE65516CFFEE6DB18D1844B381BF7A3
S11304B07C1D901DA4BBE424203284725E22810042
S11304C0C9F124ECA1E53D278906ED0FEF0F7C0669
S11304D011241FBECFEFD1E2DEBFCDBF13E0A0E0F9
S11304E0B2E0EEE9F0E402C005900D92AC31B10740
S11304F0D9F714E0ACE1B3E001C01D92A436B10712
S1130500E1F714E0CEECD4E004C02297FE010E948F
S11305103E20C83CD107C9F70E9485140C94591D8C
S11305200C940000A1E1B0E0E8E9F2E00C940520AD
S11305303C017F876E876A01FC01178216828381E2
S113054081FD03C06FEF7FEF71C39E012F5F3F4FAB
S1130550398B288BF3012381EE85FF8523FD85915B
S113056023FF8191FF87EE87882309F45CC38532DA
S113057051F4EE85FF8523FD859123FF8191FF874B
S1130580EE87853229F490E0B3010E94E81EE2CFA1
S1130590982F10E0882499241032B0F49B3269F02B
S11305A09C3228F4903251F0933271F40BC09D3296
S11305B039F0903349F4116028C01260146025C0EA
S11305C0186023C0106121C017FD2AC0892F8053F1
S11305D08A3078F416FF06C0FAE09F9E902C11240E
S11305E0980E13C03AE0839E802C1124880E10626A
S11305F00CC09E3221F416FD16C3106406C09C364E
S113060011F4106802C0983659F4EE85FF8523FD75
S1130610959123FF9191FF87EE87992309F0BCCF31
S1130620892F8554833020F4812F8061905E07C028
S1130630892F8556833008F0A1C1812F8F7E86FDD6
S113064002C076E0972E6FE3F62EF822953619F461
S1130650F0E4FF2A07C0963619F420E8F22A02C013
S113066091109A94F7FE0BC03BE3391520F427E070
S11306705CE3B52E0EC0B92CB39427E00AC047E062
S1130680491528F427E0BB2447E0942E02C0292D05
S1130690BB24C60104969D878C87F6016081718115
S11306A082819381AE014F5F5F4F0B2D0E945C1DD1
S11306B06C010981202E332400FF04C003FD02C015
S11306C01DE209C0F1FE02C01BE205C0F2FC02C03B
S11306D010E001C010E2C1018C709070892BB9F157
S11306E0112311F483E001C084E0881510F08824FC
S11306F00AC0881AF3FC07C080E290E0B3010E94AC
S1130700E81E8A94C9F7112329F0812F90E0B301E0
S11307100E94E81E23FE03C004EE10E00EC008EEA3
S113072010E00BC0E114F10409F0805290E0B30131
S11307300E94E81E0F5F1F4F05C0EF2CFF24F0E15D
S1130740EF22FF24F8018491882361F714C1F7FE96
S113075012C0BC0C24FE04C08A81813309F4BA940B
S11307601B141CF0BB24B3942DC0F8E0FB1550F50A
S113077038E0B32E27C0F6FC25C0892D90E08C15F7
S11307809D054CF02CEFC2162FEFD20624F030E872
S1130790F32A01C09A94992049F0E2E0F0E0EC0FCA
S11307A0FD1FE90DF11D80818033A1F3F7FE0AC01E
S11307B0B92CB394892D90E0C816D90614F0992465
S11307C001C09C18F7FC03C025E030E009C01C14EC
S11307D01D041CF021E030E003C096012F5F3F4F61
S11307E0112311F02F5F3F4F992029F0892D90E0BC
S11307F00196280F391F882D90E02817390714F027
S1130800882401C0821A4F2C5524C201897090702B
S1130810892B39F008C080E290E0B3010E94E81E01
S11308208A948820C1F7112329F0812F90E0B30125
S11308300E94E81E43FE07C008C080E390E0B301B5
S11308400E94E81E8A948820C1F7F7FE46C08601FC
S1130850D7FE02C000E010E076010894E11CF11C10
S1130860E01AF10A41E050E04C0F5D1FE40EF51E62
S113087026014B185108892D90E0AA24BB24A81AFC
S1130880B90A5FEF0F3F150729F48EE290E0B30138
S11308900E94E81EC016D10634F0401651061CF41E
S11308A0F701808101C080E3015010400894E11CED
S11308B0F11C0A151B052CF090E0B3010E94E81E00
S11308C0E0CF0C151D0539F49A81963318F495334D
S11308D011F424FE81E390E04BC08A81813309F056
S11308E00F7E90E0B3010E94E81E9920A1F08EE2F1
S11308F090E0B3010E94E81E12E0E1E0F0E0EC0FAA
S1130900FD1FE10FF11D1F5F808190E0B3010E9484
S1130910E81E9A9491F744FC03C085E690E002C077
S113092085E490E0B3010E94E81ED7FC05C0C11421
S1130930D10441F404FF06C0D094C194D108D394E7
S11309408DE201C08BE290E0B3010E94E81E80E3D7
S113095005C08F5F26EF3FEFC20ED31E3AE0C316E9
S1130960D104BCF790E0B3010E94E81EC601C09612
S1130970B3010E94E81ECC84DD8452C1933631F069
S1130980933799F0933509F059C023C0F60180815B
S113099089835E010894A11CB11C22E030E0C20EE0
S11309A0D31E21E0E22EF12C12C0F601A080B1800A
S11309B016FD03C06FEF7FEF02C0692D70E022E0E7
S11309C030E0C20ED31EC5010E94461E7C011F7773
S11309D013C0F601A080B18016FD03C06FEF7FEF56
S11309E002C0692D70E022E030E0C20ED31EC501C2
S11309F00E94341E7C01106813FF07C01BC080E2F4
S1130A0090E0B3010E94E81E8A94882D90E0E816D5
S1130A10F906A8F30FC0F50117FD859117FF819121
S1130A205F0190E0B3010E94E81E81108A9408944B
S1130A30E108F108E114F10471F7F2C0943611F001
S1130A40993689F517FF08C0F6012081318142816A
S1130A50538184E090E00AC0F601808191819C0179
S1130A60442737FD4095542F82E090E0C80ED91EEC
S1130A709FE6F92EF12257FF09C050954095309515
S1130A8021953F4F4F4F5F4F90E8F92ACA01B901B2
S1130A90AE014F5F5F4F2AE030E00E94141FE82E42
S1130AA0E889EE1A41C0953721F41F7E2AE030E030
S1130AB01CC0197F9F3661F0903720F4983509F0F7
S1130AC0B2C00FC0903739F0983709F0ACC004C0F9
S1130AD028E030E00AC0106114FD146020E130E029
S1130AE004C014FD166020E132E017FF08C0F601CF
S1130AF0608171818281938144E050E008C0F601F5
S1130B0080819181BC0180E090E042E050E0C40E1D
S1130B10D51EAE014F5F5F4F0E94141FE82E588907
S1130B20E51A8FE7F82EF122F6FE0BC08EEFF822BD
S1130B30E91438F4F4FE07C0F2FC05C09FEEF92274
S1130B4002C01E2D01C0192DF4FE0DC0FE01EE0DD4
S1130B50F11D8081803319F4E9EEFE2208C01F5F85
S1130B60F2FE05C003C08F2D867809F01F5F0F2D9C
S1130B70F3FC14C0F0FE0FC0181510F09E2C0BC02F
S1130B809E2C980C911A182D06C080E290E0B301B7
S1130B900E94E81E1F5F1815C0F304C0181510F456
S1130BA0811A01C0882404FF0FC080E390E0B301E0
S1130BB00E94E81E02FF1DC001FD03C088E790E00B
S1130BC00EC088E590E00BC0802F867891F001FF7D
S1130BD002C08BE201C080E2F7FC8DE290E0B30139
S1130BE00E94E81E06C080E390E0B3010E94E81E64
S1130BF09A94E914C0F3EA94E1E0F0E0EC0FFD1FED
S1130C00EE0DF11D808190E0B3010E94E81EEE20FC
S1130C1091F706C080E290E0B3010E94E81E8A9436
S1130C208820C1F797CCF30166817781CB01619667
S1130C30E2E10C942120DF93CF93CDB7DEB72A975E
S1130C400FB6F894DEBF0FBECDBF9A8389837C8331
S1130C506B8389819A818130910539F58B819C81DF
S1130C602FEF8F3F920709F58CE193E00E94B70BB9
S1130C7089E493E09A87898781E090E098878F835D
S1130C800EC089859A850E94310C89859A850B96B8
S1130C909A8789878F819885019798878F838F8119
S1130CA098852FEF8F3F920761F789819A8100978A
S1130CB0D1F48B819C812FEF8F3F9207A1F48FE5B4
S1130CC093E09E838D838D819E8123E089349207F6
S1130CD051F08D819E810B979E838D838D819E81A2
S1130CE00E94610CF0CF2A960FB6F894DEBF0FBEB7
S1130CF0CDBFCF91DF910895DF93CF93CDB7DEB70A
S1130D0080E090E06FEF7FEF0E941B06CF91DF91B0
S1130D100895DF93CF93CDB7DEB781E090E06FEF16
S1130D207FEF0E941B06CF91DF910895DF93CF934D
S1130D3000D000D0CDB7DEB79A8389837C836B83E0
S1130D4089819A812B813C81B9010E9443120F90C1
S1130D500F900F900F90CF91DF910895DF93CF9371
S1130D6000D000D0CDB7DEB79A8389837C836B83B0
S1130D7089819A812B813C81B9010E946A120F906A
S1130D800F900F900F90CF91DF910895DF93CF9341
S1130D9000D000D0CDB7DEB79A8389837C836B8380
S1130DA089819A812B813C81B9010E94B1120F90F3
S1130DB00F900F900F90CF91DF910895DF93CF9311
S1130DC000D000D0CDB7DEB79A838983E981FA8158
S1130DD081818230D8F08CE094E020E032E0B901E7
S1130DE00E94AE06AC01E981FA818181282F30E0AE
S1130DF0CA01B9010E94960625E132E0B9010E94B8
S1130E00AE0662E070E00E94C60670C0E981FA8115
S1130E108081282F30E03C832B838B819C8182301E
S1130E20910509F463C02B813C812330310534F4EE
S1130E308B819C818130910561F058C02B813C816C
S1130E402330310529F18B819C8184309105C9F1CE
S1130E504DC0E981FA818181482F50E0CA01880F91
S1130E60991F9C01220F331F220F331F820F931FE0
S1130E70840F951F875B9C4FE981FA814281E98148
S1130E80FA8123813481642FA9010E94DD0C2EC0D4
S1130E90E981FA818181482F50E0CA01880F991FA6
S1130EA09C01220F331F220F331F820F931F840FC5
S1130EB0951F875B9C4F0E94B50CE981FA8185835D
S1130EC015C0E981FA818181482F50E0CA01880F59
S1130ED0991F9C01220F331F220F331F820F931F70
S1130EE0840F951F875B9C4F0E94CD0C0F900F9031
S1130EF00F900F90CF91DF910895DF93CF93CDB7EB
S1130F00DEB766970FB6F894DEBF0FBECDBF6E870F
S1130F107F87888B998B2A8B3B8B4C8B5D8BCE0187
S1130F2003960E94290804C0CE0103960E94DE069F
S1130F308CE193E09E012D5F3F4FB9010E94560A58
S1130F401E8A8130910511F481E08E8B8E8988236D
S1130F5059F71A82198217C049815A81CA01880F28
S1130F60991F9C01220F331F220F331F820F931FDF
S1130F70840F951F875B9C4F0E94870D89819A81FE
S1130F8001969A83898389819A818230910520F31D
S1130F9080E29EE4A0E0B0E0BC01CD0166960FB60D
S1130FA0F894DEBF0FBECDBFCF91DF910895DF93DC
S1130FB0CF9300D000D0CDB7DEB769837A838B831B
S1130FC09C838CE193E02CE034E0B9010E94990BFE
S1130FD089E493E02EEF33E0B9010E946D0C84E5BF
S1130FE093E022E034E0B9010E946D0C80E090E0CF
S1130FF0A0E0B0E0BC01CD010F900F900F900F90D6
S1131000CF91DF910895DF93CF93CDB7DEB70E94E0
S1131010720ECF91DF910895DF93CF9300D0CDB7B7
S1131020DEB79A838983E981FA811082E981FA81A2
S11310301182E981FA811282E981FA811482138290
S1131040E981FA8181E085830F900F90CF91DF9140
S11310500895DF93CF9300D0CDB7DEB79A83898309
S1131060E981FA811082E981FA811182E981FA81A8
S11310701282E981FA8114821382E981FA8181E082
S113108085830F900F90CF91DF910895DF93CF93D5
S113109000D000D000D0CDB7DEB79A8389837C839B
S11310A06B83EB81FC818081282F30E03E832D838C
S11310B08D819E818230910539F02D813E812330CE
S11310C0310509F43FC07AC0E981FA8153A5252F7F
S11310D030E0EB81FC81408189819A81820F931FEA
S11310E0FC0176964083852F8F5FE981FA8183A77F
S11310F0E981FA8153A5252F30E0EB81FC81418100
S113110089819A81820F931FFC0176964083852FF3
S11311108F5FE981FA8183A7E981FA8153A5252F9D
S113112030E0EB81FC818281482F89819A81820F92
S1131130931FFC0176964083852F8F5FE981FA81A6
S113114083A73CC0E981FA8153A5252F30E0EB81C8
S1131150FC81408189819A81820F931FFC017696DC
S11311604083852F8F5FE981FA8183A7E981FA8122
S113117053A5252F30E0EB81FC81418189819A813F
S1131180820F931FFC0176964083852F8F5FE98140
S1131190FA8183A7E981FA8153A5252F30E0EB81F9
S11311A0FC81458189819A81820F931FFC01769687
S11311B04083852F8F5FE981FA8183A726960FB636
S11311C0F894DEBF0FBECDBFCF91DF910895DF93BA
S11311D0CF93CDB7DEB728970FB6F894DEBF0FBE16
S11311E0CDBF9C838B837E836D8358874F838D8192
S11311F09E819A83898319C0EB81FC810190F081DF
S1131200E02D0190F081E02D40815181EB81FC8142
S113121080819181E981FA812081622FFA01099507
S113122089819A8101969A83898329813A818D8162
S11312309E81281B390B8F81988528173907E4F282
S113124028960FB6F894DEBF0FBECDBFCF91DF91C5
S11312500895DF93CF9300D000D0CDB7DEB79C8341
S11312608B838FEF9FEF9A83898339C0EB81FC8155
S11312700190F081E02D80819181FC0132962081E2
S11312803181EB81FC8180819181F90109959A83F7
S1131290898389819A812FEF8F3F920729F1EB810E
S11312A0FC8182A5282F30E08B819C81820F931FC3
S11312B0FC0132961082EB81FC8182A5282F30E05C
S11312C049818B819C81820F931FFC01329640835C
S11312D0EB81FC8182A58F5FEB81FC8182A7EB818E
S11312E0FC8182A5843110F280E00F900F900F9062
S11312F00F90CF91DF910895DF93CF9300D000D06A
S1131300CDB7DEB79A8389837C836B8389819A8185
S11313102B813C81B9010E946A120F900F900F90AB
S11313200F90CF91DF910895DF93CF9300D000D039
S1131330CDB7DEB79A8389837C836B8389819A8155
S11313402B813C81B9010E9443120F900F900F90A2
S11313500F90CF91DF910895DF93CF9300D000D009
S113136000D0CDB7DEB79A8389837C836B83E98110
S1131370FA818281282F30E03E832D838D819E81E6
S11313808230910509F43EC02D813E812330310520
S113139034F48D819E818130910571F06AC02D8174
S11313A03E812330310509F44BC08D819E81843008
S11313B0910509F452C05DC0E981FA818281EB8113
S11313C0FC818083E981FA818381EB81FC818183C3
S11313D0E981FA818481EB81FC818283E981FA814C
S11313E08581882F90E0982F88279C01E981FA81D4
S11313F08681882F90E0822B932BEB81FC81948350
S1131400838337C0E981FA818281EB81FC81808307
S1131410E981FA818381EB81FC8181838CE094E012
S113142027E132E0B9010E94AE06AC01E981FA81FC
S11314308281282F30E0CA01B9010E94960619C0A2
S1131440E981FA818281EB81FC818083E981FA81DF
S11314508381EB81FC8181830CC0E981FA818281E3
S1131460EB81FC818083E981FA818381EB81FC81BA
S1131470818326960FB6F894DEBF0FBECDBFCF9101
S1131480DF910895DF93CF9300D00F92CDB7DEB7ED
S11314909A8389836B8389819A816B810E94B812B4
S11314A00F900F900F90CF91DF910895DF93CF931A
S11314B0CDB7DEB728970FB6F894DEBF0FBECDBF09
S11314C09C838B837E836D838B819C810E942909FD
S11314D084E18A83EB81FC8182A5882309F464C0BA
S11314E0EB81FC818281882329F0EB81FC8182815C
S11314F0853030F0EB81FC8112A618861F826EC005
S1131500EB81FC818281882F90E0FC01E85DFD4F36
S113151080818A838CE094E021E232E0B9010E9468
S1131520AE066A810E94420AEB81FC8192A58A81FF
S11315309817D0F18B819C812D813E81B9010E9445
S1131540AC09EB81FC8192A58A81292F281B822F6B
S1131550EB81FC8182A719821CC08981482F50E04D
S11315608981282F30E08A81882F90E0280F391F45
S11315708B819C81820F931FFC01329620818B8189
S11315809C81840F951FFC013296208389818F5F93
S11315908983EB81FC8192A589818917F0F281E02E
S11315A090E098878F831AC0EB81FC8183A5882300
S11315B099F08B819C81AC014A5E5F4FEB81FC8189
S11315C083A5282F30E08B819C81BA01A9010E9458
S11315D0E708EB81FC8113A618861F828F8198850A
S11315E028960FB6F894DEBF0FBECDBFCF91DF9122
S11315F00895DF93CF93CDB7DEB764970FB6F89411
S1131600DEBF0FBECDBF9A8B898B7C8B6B8B1C820C
S11316101B820DC02B813C81CE010796FC01E20F99
S1131620F31F10828B819C8101969C838B838B8119
S11316309C818A30910574F3CE0107969E838D8335
S11316408B899C899E01295F3F4FB9014AE050E094
S11316500E94511E9E838D831A82198220C0E989BB
S1131660FA890190F081E02D0190F081E02DA081B4
S1131670B181E989FA8980819181AC0129813A811A
S11316808D819E81FC01E20FF31F2081CA01622F2C
S1131690FD01099589819A8101969A8389838981BB
S11316A09A818A309105DCF2E989FA890190F08106
S11316B0E02D0190F081E02D20813181E989FA89C2
S11316C0808191816DE0F9010995E989FA89019098
S11316D0F081E02D0190F081E02D20813181E989B4
S11316E0FA89808191816AE0F901099564960FB6BF
S11316F0F894DEBF0FBECDBFCF91DF910895DF9385
S1131700CF9300D00F92CDB7DEB79A8389836B83D2
S1131710E981FA81868997896B810E94C219E981DE
S1131720FA818B81808F0F900F900F90CF91DF9172
S11317300895DF93CF9300D000D0CDB7DEB79A835E
S113174089837C836B83E981FA818B819C8191837A
S11317508083E981FA818081918160E00E947F0B1E
S11317600F900F900F900F90CF91DF910895DF931A
S1131770CF9300D0CDB7DEB79A838983E981FA810C
S113178011821082E981FA8112A6E981FA8113A6F5
S113179089819A81029660E070E044E150E00E9401
S11317A03F1E89819A81469660E070E044E150E0F2
S11317B00E943F1EE981FA8114A60F900F90CF91E9
S11317C0DF910895DF93CF9300D0CDB7DEB79A832E
S11317D08983E981FA8111821082E981FA8112A652
S11317E0E981FA8113A689819A81029660E070E00A
S11317F044E150E00E943F1E89819A81469660E050
S113180070E044E150E00E943F1EE981FA8114A691
S11318100F900F90CF91DF910895DF93CF9300D075
S1131820CDB7DEB79A838983E981FA8181E882831F
S1131830E981FA818FE78383E981FA811582148231
S1131840E981FA8117821682E981FA81118610866C
S1131850E981FA8181E082870F900F90CF91DF9127
S11318600895DF93CF9300D0CDB7DEB79A838983F1
S1131870E981FA8181E88283E981FA818FE78383B0
S1131880E981FA8115821482E981FA81178216822C
S1131890E981FA8111861086E981FA8181E08287E3
S11318A00F900F90CF91DF910895DF93CF9300D0E5
S11318B0CDB7DEB79A8389830F900F90CF91DF91D4
S11318C00895DF93CF9300D0CDB7DEB79A83898391
S11318D00F900F90CF91DF910895DF93CF9300D0B5
S11318E000D0CDB7DEB79A8389837C836B83E9818B
S11318F0FA818B819C81918380830F900F900F904C
S11319000F90CF91DF910895DF93CF9300D000D053
S1131910CDB7DEB79A8389836B834C83E981FA81DF
S11319208B818283E981FA818C8183830F900F906C
S11319300F900F90CF91DF910895DF93CF9300D054
S113194000D0CDB7DEB79A8389837C836B83E9812A
S1131950FA8184819581EB81FC8180830F900F90C3
S11319600F900F90CF91DF910895DF93CF9300D024
S11319700F92CDB7DEB79A838983E981FA81808596
S113198091851B82009711F081E08B838B810F90EE
S11319900F900F90CF91DF910895DF93CF9300D0F4
S11319A0CDB7DEB79A838983E981FA8111861086DF
S11319B00F900F90CF91DF9108950F931F93DF93B2
S11319C0CF93CDB7DEB729970FB6F894DEBF0FBE1D
S11319D0CDBF9C838B836D835F834E83EB81FC81BE
S11319E092818D8189172CF4EB81FC818281898716
S11319F002C08D81898789858D83EB81FC819381E8
S1131A008D8198172CF4EB81FC818381888702C037
S1131A108D81888788858D838D81992787FD909511
S1131A2061E87FEF4FE750E024E030EC0CEF1FE378
S1131A300E940D139A8389838E819F81843191053D
S1131A409CF4EB81FC812481358189819A81821BFC
S1131A50930BEB81FC8197838683EB81FC8181E08E
S1131A6090E09187808732C0EB81FC8124813581AD
S1131A7089819A81821B930B2E813F81B9010E9437
S1131A80B51FCB019C01220F331F220F331FC90145
S1131A90880F991F880F991F820F931FEB81FC8178
S1131AA097838683EB81FC812481358189819A81A6
S1131AB0821B930BEB81FC8126813781B9010E9443
S1131AC0B51FCB01EB81FC819187808729960FB6E6
S1131AD0F894DEBF0FBECDBFCF91DF911F910F9160
S1131AE00895DF93CF9300D00F92CDB7DEB79A83DA
S1131AF089836B83E981FA81808191816B810E9462
S1131B00D2120F900F900F90CF91DF9108950F9301
S1131B101F93DF93CF9300D000D0CDB7DEB79C8363
S1131B208B83EB81FC818285882F90E02FEF8F3FA0
S1131B30920751F4EB81FC818081918160E00E94E5
S1131B40710DEB81FC811286EB81FC81808591858E
S1131B50009779F1EB81FC8124813581EB81FC8153
S1131B6086819781820F931FEB81FC819583848307
S1131B70EB81FC818481958164E070EC4CEF5FE340
S1131B8021E83FEF0FE710E00E940D139A83898349
S1131B90EB81FC81808191812981622F0E94710DEA
S1131BA0EB81FC81808591850197EB81FC81918794
S1131BB080870F900F900F900F90CF91DF911F911E
S1131BC00F910895DF93CF9300D00F92CDB7DEB776
S1131BD09A8389836B83E981FA81808991896B81F6
S1131BE00E948F19882F90E00F900F900F90CF9143
S1131BF0DF910895DF93CF93CDB7DEB764970FB627
S1131C00F894DEBF0FBECDBF9A8B898B7C8B6B8B18
S1131C101C821B820DC02B813C81CE010796FC01E6
S1131C20E20FF31F10828B819C8101969C838B832E
S1131C308B819C818A30910574F3CE0107969E8333
S1131C408D838B899C899E01295F3F4FB9014AE0AE
S1131C5050E00E94511E9E838D831A82198212C005
S1131C6029813A818D819E81FC01E20FF31F20813D
S1131C708CE094E0622F0E94E20D89819A810196A2
S1131C809A83898389819A818A3091054CF38CE007
S1131C9094E06DE00E94E20D8CE094E06AE00E9422
S1131CA0E20D64960FB6F894DEBF0FBECDBFCF91A0
S1131CB0DF910895682F8AE792E00E94ED1490E086
S1131CC008958BE093E09093580480935704809197
S1131CD059048C7F8093590487E594E06FEF0E9448
S1131CE06314089583ED92E00E94F31008958091A7
S1131CF06702909168026FEF0E94151485E392E0E9
S1131D0040E052EC61E070E00E94BA1708951F921F
S1131D100F920FB60F9211242F933F934F935F931B
S1131D206F937F938F939F93AF93BF93EF93FF939F
S1131D30E0916102F0916202608185E392E00E9489
S1131D40EE18FF91EF91BF91AF919F918F917F9189
S1131D506F915F914F913F912F910F900FBE0F9014
S1131D601F9018951F920F920FB60F9211242F9364
S1131D703F934F935F936F937F938F939F93AF930F
S1131D80BF93EF93FF9385E392E00E949919FF912B
S1131D90EF91BF91AF919F918F917F916F915F91DF
S1131DA04F913F912F910F900FBE0F901F90189558
S1131DB085E392E00E9408190895682F85E392E074
S1131DC00E948F1990E00895FC016FB7F8948091F8
S1131DD02401909125012091E1033091E203409187
S1131DE0E3035091E403208331834283538320919E
S1131DF0240130912501358324832817390710F0F5
S1131E00D19B12C080819181A281B381805093487B
S1131E10AF4FBF4F80839183A283B383809124010A
S1131E2090912501958384836FBF0895EF92FF926B
S1131E300F931F93FC01E080F18002811381648180
S1131E40758180E090E020E03DE740E050E00E94B2
S1131E50821F20E03AEF40E050E00E94C81F2E0DA0
S1131E603F1D401F511FB901CA011F910F91FF90DF
S1131E70EF9008950F931F93DF93CF9300D000D07A
S1131E8000D0CDB7DEB78E010F5F1F4FC8010E948F
S1131E90E40EC8010E94160F26960FB6F894DEBF12
S1131EA00FBECDBFCF91DF911F910F910895D19AAD
S1131EB0E3E7F0E080818260808308951F920F92AF
S1131EC00FB60F9211242F938F939F93AF93BF93C9
S1131ED08091E1039091E203A091E303B091E403C4
S1131EE080509348AF4FBF4F8093E1039093E20338
S1131EF0A093E303B093E403209152042223B9F1A5
S1131F00399B35C08091E503882319F08150809373
S1131F10E5038091E503882351F5809153048823D8
S1131F2059F4822F992787FD909597FF03C09095C8
S1131F3081959F4F8093530427FD02C09FE001C009
S1131F4097E020915404222341F08091530481505E
S1131F5080935304882309F49EE3109254042223AB
S1131F6019F481E0809354049093E503319ABF916E
S1131F70AF919F918F912F910F900FBE0F901F9053
S1131F801895282F6115710519F4A0E0B0E002C07E
S1131F90DB011297ED91FC9111970190F081E02DF6
S1131FA0CD01622F09950895009719F4A0E0B0E0DF
S1131FB002C0DC011297ED91FC9111970280F3812C
S1131FC0E02DCD0109950895862F90E008958FEFB7
S1131FD09FEF08958FEF9FEF08950895FFCF87E552
S1131FE094E09093E9038093E80384EE92E0909365
S1131FF0E7038093E60387E692E09093EB038093F4
S1132000EA0361EC7FE07093F7036093F60344ED19
S11320105FE05093F9034093F803A3E0A093F10326
S11320201092FB031092FA0380EF92E09093ED0379
S11320308093EC038AE792E09093FD038093FC0382
S113204081E992E09093FF038093FE03909301044F
S11320508093000487EA92E090930304809302043F
S113206090930504809304048DEB92E0909307040D
S113207080930604909309048093080483ED92E00E
S113208090930B0480930A047093170460931604CE
S11320905093190440931804A093110410921B0444
S11320A010921A0425E332E030931D0420931C049B
S11320B0ECE0F4E0F0934B02E0934A0280E093E01A
S11320C09183808330932304209322041092240468
S11320D07093300460932F0450933204409331047E
S11320E0A0932A04109234041092330480E193E004
S11320F0909326048093250408951F93162F8091AE
S11321005704909158040E940014882329F087E50D
S113211094E0612F0E9463141F910895FC01828151
S113212093810E9463140895FC01808991890E941F
S1132130ED1490E00895FC01808D882329F08689B0
S113214097890E94D0190895808991890E9408195D
S11321500895FC01808991890E9408190895FC0161
S1132160808991890E948F1990E0089524EA32E0D1
S1132170F901A591B4918EE01A968C931A97E0EA2E
S1132180F0E0808182608083E1EAF0E08081886011
S1132190808380818061808380E49CE99093A700A0
S11321A08093A60048E050E04D935C938081826068
S11321B08083245D3F4FF901A591B49184E01A9680
S11321C08C931A97E1E2F1E080818860808380E05B
S11321D09AEF90932901809328014D935C93808119
S11321E08260808308958F929F92AF92BF92CF9224
S11321F0DF92EF92FF920F931F93CF93DF936C01C3
S1132200DC0112968C91C82FD0E021977E01EE0C50
S1132210FF1C9FE7892E93E0992E8CE2A82E47C0DD
S1132220D601ED91FC91EE0DFF1D05911491F8017D
S1132230D582C482868197810E940B17FC01D80144
S113224055969C938E9354973296B49011969C9283
S11322508E9216968D919C91179760E00E943C1483
S1132260BA9CC00111248D5E9D4FFC01A591B491CF
S11322708D919C91D80153969C938E935297189666
S11322806D917C9119971A964D915C911B97C80199
S11322900E948F11C80160E00E94D212C8016FEF42
S11322A00E94F2122197EEEFFFEFEE0EFF1EFFEFFA
S11322B0CF3FDF0709F0B4CFDF91CF911F910F918A
S11322C0FF90EF90DF90CF90BF90AF909F908F9052
S11322D00895FC0184899589611162E00E94571771
S11322E00895EF92FF920F931F93FC01E488F58801
S11322F02485358506851785862F992787FD909532
S113230061E87FEF4FE750E00E945413BC01C7011E
S11323100E9479171F910F91FF90EF9008959F925B
S1132320AF92BF92CF92DF92EF92FF920F931F93DF
S1132330CF93DF93EC017B018A01798768875B8700
S11323404A878C819D81892B09F45EC09FB6F894DD
S11323508A899B8968EE73E00E94A11F5B01CC24EB
S1132360DD24B701601B710B80E090E0A6019501AC
S11323700E94821F24E130E040E050E00E94C81F28
S1132380C901DA019C01AD01DA01C90180709070C4
S11323900097A105B10539F086EE0E949D132FEF39
S11323A03FEF40E050E03D872C870E0D1F1DB80124
S11323B080E090E0A60195010E94821F24E130E0B4
S11323C040E050E00E94C81FC901DA019C01AD0140
S11323D0DA01C901807090700097A105B10539F048
S11323E086EE0E949D132FEF3FEF40E050E03F87C1
S11323F02E878B8180FF07C06A8161506A836F5F7B
S1132400CE010E94D2129FBEDF91CF911F910F91F6
S1132410FF90EF90DF90CF90BF90AF909F90089582
S11324200F931F93DF93CF93CDB7DEB7A1970FB66A
S1132430F894DEBF0FBECDBF8C01223008F422E039
S1132440CB01BA01AE014F5F5F4F30E00E94721EB4
S1132450BC01C8010E946A12A1960FB6F894DEBFAF
S11324600FBECDBFCF91DF911F910F9108952AE048
S11324700E9410120895AB01662757FD6095762FD0
S11324800E9437120895AB01662757FD6095762F99
S11324902AE00E9410120895462F552747FD5095B3
S11324A0652F752F2AE00E9410120895EF92FF9273
S11324B00F931F93E62E242FFF24E7FCF0940F2D97
S11324C01F2DB801A7010E9410121F910F91FF90B8
S11324D0EF9008950F931F93CF93DF93182F092F35
S11324E0EB0104C0812F902F0E94E41969916623A7
S11324F0C9F7812F902FDF91CF911F910F910895EC
S11325000F931F93DF93CF93CDB7DEB7A1970FB689
S1132510F894DEBF0FBECDBF8C01223008F422E058
S1132520CB01BA01AE014F5F5F4F30E00E94A61E9F
S1132530BC01C8010E946A12A1960FB6F894DEBFCE
S11325400FBECDBFCF91DF911F910F9108952AE067
S11325500E9480120895AB0160E070E00E94A7120F
S11325600895AB0160E070E02AE00E9480120895B3
S1132570462F50E060E070E02AE00E948012089547
S1132580EF92FF920F931F93242FE62EFF2400E077
S113259010E0B801A7010E9480121F910F91FF90D3
S11325A0EF9008951F93CF93DF93EC01162F6138BA
S11325B00CF411E8E881F981309779F02591349190
S11325C02115310551F08B8181FD02C0612F02C0BC
S11325D0612F6195CE01F90109951A83DF91CF919D
S11325E01F910895DC01962F917013968C91139787
S11325F08E7F892B13968C9313978D919C911197B1
S1132600009751F0FC013296259134912115310542
S113261019F0CD01F901099508954F925F926F92D7
S11326207F928F929F92AF92BF92CF92DF92EF925E
S1132630FF920F931F932B013A0159017801E21A7B
S1132640F30A0027F7FC0095102F9C01261B370B7B
S1132650442737FD4095542FC801B7010E94821FBB
S113266064187508882477FC8094982CA40193013D
S11326700E94EA1FC901DA01CC24B7FCC094DC2C07
S1132680A80EB91ECA1EDB1EC5011F910F91FF9033
S1132690EF90DF90CF90BF90AF909F908F907F90FE
S11326A06F905F904F9008954F925F926F927F92D8
S11326B08F929F92AF92BF92CF92DF92EF92FF924E
S11326C00F931F932B015A0139017801E21AF30A7F
S11326D000E010E09C01261B370B442737FD409592
S11326E0542FC801B7010E94821FA418B508CC2436
S11326F0B7FCC094DC2CA60195010E94EA1F882433
S11327009924260D371D481D591DC9011F910F918C
S1132710FF90EF90DF90CF90BF90AF909F908F90FD
S11327207F906F905F904F90089580915204089528
S1132730909356048093550408951F93182F809105
S11327405204882309F05AC010935204809157040C
S113275090915804009749F00E940014882329F0AE
S113276087E594E060E00E94631480916204909194
S11327706304009709F442C017FF12C000D000D0D0
S1132780ADB7BEB712969C938E93119784E993E0EC
S113279014969C938E9313970E94CB1E11950CC094
S11327A000D000D0EDB7FEB7928381838FE893E029
S11327B0948383830E94CB1E00D0EDB7FEB731967D
S11327C08091620490916304ADB7BEB712969C9356
S11327D08E93119783E893E093838283812F9927C3
S11327E087FD9095958384830E94CB1EEDB7FEB739
S11327F036960FB6F894FEBF0FBEEDBF1F91089535
S11328009C01009781F0FC01859194910296FC0152
S1132810A591B4912E5F3F4FF90194918C91892336
S113282011F08FEF089580E00895CF93DF939C011A
S11328300097F9F0FC0145915491CA010296FC01FC
S1132840A591B491FA01C591D4912E5F3F4FF9013E
S113285094913FB7F8948C91292F209582238C93DF
S1132860662319F08881892B02C08881822388839A
S11328703FBFDF91CF910895CF93DF939C010097E1
S1132880F9F0FC0145915491CA010296FC01C591ED
S1132890D491FA01A591B4912E5F3F4FF90124918F
S11328A03FB7F894662319F08C91822B04C08C9165
S11328B0922F909589238C938881822B88833FBFA4
S11328C0DF91CF9108951F93CF93DF93EC01162FDF
S11328D0888199810097A9F03A8130FD05C020E0F4
S11328E0662309F421E0122F31FD06C0612F0E94F6
S11328F03C148A8182608A8388819981612F0E9435
S11329009E1ADF91CF911F9108950E94610E0E943B
S1132910B6100E94570F78940E94770E0E94030805
S11329200E943A0F6093390470933A0480933B04F5
S113293090933C040E94D70760933D0470933E0437
S113294080933F049093400478940E944A1A8091A3
S11329503D0490913E04A0913F04B091400400973F
S1132960A105B10519F416C00E944A1A60913904F0
S113297070913A0480913B0490913C0420913D0471
S113298030913E0440913F04509140040E94FF194D
S1132990882351F30E943A0F9B01AC0160933904E0
S11329A070933A0480933B0490933C046091350403
S11329B07091360480913704909138046F5F7F4F93
S11329C08F4F9F4F60933504709336048093370480
S11329D0909338040E947D07AFCFCF92DF92EF929D
S11329E0FF920F931F93CF93DF93EC01D62E8C812C
S11329F09D81892BA9F58A859B8501960E94541C8B
S1132A009D838C83009761F120E030E007C0EC8166
S1132A10FD81E20FF31F10822F5F3F4F8A859B8554
S1132A2082179307A0F7198618861F821E828C8945
S1132A308E7F8C8B00E010E00EC0C801880F991FB8
S1132A40E881F981E80FF91F8591949160E20E9471
S1132A504A160F5F1F4F8A819B810817190768F375
S1132A60EC81FD81309709F43EC08AE0D81619F54F
S1132A7088859985E80FF91F108219861886CFB6C4
S1132A80F8948C8980FD15C08C8981608C8B8C892D
S1132A908D7F8C8B1F821E820E943A0F9B01AC019A
S1132AA0EC84FD840E851F858DE795E1BE010E94AF
S1132AB0BB1BCFBE18C08DE0D816A9F02885398578
S1132AC08A859B852817390770F4E20FF31F2FB707
S1132AD0F894D08211828885998501969987888790
S1132AE01F821E822FBF8D2DDF91CF911F910F91D9
S1132AF0FF90EF90DF90CF9008952F923F924F92E6
S1132B005F926F927F928F929F92AF92BF92CF9279
S1132B10DF92EF92FF920F931F93CF93DF93382EA0
S1132B20292E2A013B01C82FD92F0C811D818E81AA
S1132B309F81080F191FF80180808C898695817008
S1132B40882029F4A888B988CA88DB8804C0AC84A2
S1132B50BD84CE84DF848823D1F48820C1F0F801B9
S1132B6032918F010F5F1F4F4A815B81F80180E032
S1132B7090E007C02081222351F0231741F43196BD
S1132B80019684179507B0F399249A9401C0992467
S1132B908C8986958170292D332727FD309590E007
S1132BA028173907C1F0A601950162E056954795AB
S1132BB0379527956A95D1F7992D92708C898D7FD9
S1132BC0892B8C8B992019F059016A0104C0A21A2F
S1132BD0B30AC40AD50AEE24FF2418C0C701880F1B
S1132BE0991FE881F981E80FF91F85919491992043
S1132BF039F4F8016081662319F00F5F1F4F01C09B
S1132C0060E20E944A160894E11CF11C8A819B81AF
S1132C10E816F90618F38820B1F41F821E82888909
S1132C209989AA89BB890097A105B10529F0EC818E
S1132C30FD818081882319F48C898E7F02C08C8960
S1132C408D7F8C8B07C0992029F48E819F810196FA
S1132C509F838E838C8980FF0AC08DE795E1632D65
S1132C60722DA3019201860175010E94BB1BDF91A5
S1132C70CF911F910F91FF90EF90DF90CF90BF9075
S1132C80AF909F908F907F906F905F904F903F9008
S1132C902F900895EF92FF920F931F93CF93DF939A
S1132CA08C01E62EFC01808981FD12C0C0E0D0E0D9
S1132CB0F801EC0FFD1F8081918160E00E943C14BB
S1132CC02296C031D105A1F7F80180898260808BFA
S1132CD08E2D0E94D016F82E80FF07C0F80186853D
S1132CE09785892B11F480E1F82EF801808980FF03
S1132CF0F094C0E0D0E0F801EC0FFD1F80819181D9
S1132D00F7FE03C00E947A1A02C00E94551A229646
S1132D10C031D10511F0FF0CEECF8E2DDF91CF9194
S1132D201F910F91FF90EF900895EF92FF920F93F0
S1132D301F93CF93DF938C01E62EF42EFC01808940
S1132D4081FD12C0C0E0D0E0F801EC0FFD1F8081CE
S1132D50918160E00E943C142296C031D105A1F714
S1132D60F80180898260808BF801808980FD06C02B
S1132D70FF2019F4FF24FA9401C0FF24EE2DF0E0A3
S1132D80EE0FFF1FE00FF11F808191816F2D0E94D4
S1132D909E1ADF91CF911F910F91FF90EF900895AC
S1132DA0E82F81548A3128F4F0E0E35AFC4F8491EF
S1132DB008958E2F81568A3128F4F0E0E35CFC4FAD
S1132DC0849108958E2F80538A3028F4F0E0E857D8
S1132DD0FC4F84910895EA3028F4F0E0E854FC4F65
S1132DE084910895ED3211F482E00895EB3579F081
S1132DF0EB3769F0E83259F0ED3559F0ED3749F029
S1132E00E93239F080E0EE3229F481E008958CE96A
S1132E10089580EF0895BF92CF92DF92EF92FF92D0
S1132E200F931F93CF93DF936C01B090DF0224EFD5
S1132E3031E090E0C0E0D0E02DC0285F3F4FF901C1
S1132E40E49028503040F90177962A5F3F4F80E0A4
S1132E50A0E0B0E005911491F901F49026503040BF
S1132E6014C0B8016A0F7B1FFB013E964591549133
S1132E704115510541F04C155D0529F4FF2011F071
S1132E80EB010AC0EB018F5F50968E1550F39F5FE4
S1132E90245D3F4F9B1588F2CE01DF91CF911F91A6
S1132EA00F91FF90EF90DF90CF90BF9008959C0119
S1132EB00B96FC01A591B491235F3F4FF901249136
S1132EC070E0022E02C0660F771F0A94E2F781E0D9
S1132ED090E002C0880F991F2A95E2F7282F220F4D
S1132EE0282B9C91822F862320952923822B8C9337
S1132EF00895CF93DF939C012E5F3F4FF901849196
S1132F00225030409CE2899FA00111244C505E4F16
S1132F10485F5F4FFA018491485050408823C1F0C4
S1132F20C9010696FC01C591D491FA013696E49143
S1132F30EE2319F0798368830EC06F3F710531F079
S1132F4028F08EEF0E949D136FEF70E0688303C03A
S1132F508DEF0E949D13DF91CF910895DC011996A6
S1132F608D919C911A97FC0125913491CD01F90121
S1132F7009950895DF92EF92FF920F931F93CF93D9
S1132F80DF93EC017A018B01DFB6F8942D853E8541
S1132F908F8598892817390711F080E001C08FEFD9
S1132FA08F8B882381F02D853E858F8598892817FE
S1132FB0390721F0C90160E00E9415148F859889B2
S1132FC06FEF0E94151488858160888788858B7FC0
S1132FD0888788858D7F888789859A850496FC01F2
S1132FE025913491CE01B801A701F9010995DFBEFD
S1132FF0DF91CF911F910F91FF90EF90DF90089593
S1133000BF92CF92DF92EF92FF920F931F93CF93D1
S1133010DF937A018B01EC01BFB6F8944F3F8FEF39
S113302058078FEF68078FEF780721F4A1E0CA2EC5
S1133030D12C24C0CB01BA01F3E0660F771F881F9F
S1133040991FFA95D1F720912D0230912E024091CB
S11330502F0250913002620F731F841F951FA80125
S11330609701E4E0220F331F441F551FEA95D1F75F
S11330700E94C81F69010894C108D10898A999231E
S1133080C9F1ECA1FDA180819095892380838FEF04
S1133090E8168FEFF8068FEF08078FEF180719F47B
S11330A021E030E01DC032E0EE0CFF1C001F111FB8
S11330B03A95D1F760912D0270912E0280912F02E2
S11330C0909130026E0D7F1D801F911FEE0CFF1C2E
S11330D0001F111FA80197010E94C81F21503040F2
S11330E02C153D0538F0ECA1FDA1808198A9892B10
S11330F080836901E8A5F9A5C082EAA5FBA5D08271
S1133100BFBEDF91CF911F910F91FF90EF90DF90A1
S1133110CF90BF900895DC019696ED91FC9197971E
S1133120808187728083D0969C91D097992341F0B7
S11331309496ED91FC919597808190958923808355
S11331400895DC0157968C915797882371F09696D1
S1133150ED91FC9197978081877B80839696ED9182
S1133160FC9197978081806980830895DC019C9607
S1133170ED91FC919D9760830895DC0157968C91A5
S11331805797882371F09696ED91FC9197978081DB
S11331908F7680839696ED91FC91979780818864D1
S11331A080830895CF93DF93EC010E94AE178F893B
S11331B0882311F020E90CC08D859E85892B11F0A0
S11331C020E901C020E08F859889892B09F02864C3
S11331D0EEA1FFA12083DF91CF910895DC01262F7A
S11331E014968D919C911597892B59F01496ED9115
S11331F0FC91159716966D917C911797822F0995DE
S113320008959096ED91FC919197CD0109950895BB
S1133210FC0122A133A1F90109950895FC014FB7DE
S1133220F894238534858FEF9FEF948783874FBF6E
S1133230C9010895FC01838594858F5F9F4F29F40C
S1133240862F90E0948783870895808584608087A3
S113325085EF0E949D130895DC0119968D919C9130
S11332601A970296FC0125913491CD01F901099533
S11332700895CF93DF93EC0188858E7F8887E88D4E
S1133280F98D309721F08A8D9B8D6FEF0995E98533
S1133290FA853896259134912115310519F0CE011E
S11332A0F9010995DF91CF910895CF93DF93EC0154
S11332B0888581608887E985FA853A9625913491D5
S11332C02115310519F0CE01F9010995E88DF98D23
S11332D0309721F08A8D9B8D60E00995DF91CF9125
S11332E00895EF92FF920F931F93CF93DF938C0176
S11332F07B01EA010BC0D7016D917D01D8015C9679
S1133300ED91FC915D97C80109952197209799F754
S1133310DF91CF911F910F91FF90EF9008951F932C
S1133320FC01162F248D358DF9010995812F1F91EC
S11333300895FC01268D378DF901099508951F9391
S11333401FB7F8940E9455191FBF1F9108950F933A
S11333501F93CF93DF93062FEC0102C00E944A1AF9
S1133360888580FFFBCF1FB7F894CE010E943919DE
S1133370CE01602F0E942C191FBFDF91CF911F91A6
S11333800F910895DC019696ED91FC919797662331
S113339019F080818F7702C08081806880830895CE
S11333A0DC019496ED91FC919597808187FD03C093
S11333B02FEF3FEF07C09C96ED91FC919D97808184
S11333C0282F30E0C90108951F93CF93DF93EC01B8
S11333D0162F6A3039F4E881F9810190F081E02DEB
S11333E06DE00995E881F9810190F081E02DCE012D
S11333F0612F0995CE01DF91CF911F9108950F930D
S11334001F9300E010E00E94081A1F910F91089585
S11334108F929F92AF92BF92CF92DF92EF92FF92E0
S11334200F931F93CF93DF936B017C0149015A01E2
S1133430E8010E943A0F6C197D098E099F096815ED
S113344079058A059B0568F00115110541F0681995
S113345079098A099B09688379838A839B838FEF1F
S11334600CC00115110541F0861A970AA80AB90A79
S113347088829982AA82BB8280E0DF91CF911F91DA
S11334800F91FF90EF90DF90CF90BF90AF909F90FF
S11334908F9008958FB7789400000000000000001A
S11334A00000000000008FBF0895CF93DF939C01BC
S11334B00097E9F0FC0185919491FC01A591B491E8
S11334C00296FC01C591D4912E5F3F4FF9012491DE
S11334D08881822349F09FB7F8948C9120958223A8
S11334E08C939FBF000003C087EF0E949D13DF9160
S11334F0CF910895CF93DF939C010097E1F0FC01F5
S113350085919491FC01A591B4910296FC01C59119
S1133510D4912E5F3F4FF90124918881822341F099
S11335209FB7F8948C91822B8C939FBF000003C0AB
S113353087EF0E949D13DF91CF910895662319F0C0
S11335400E947A1A08950E94551A08952F923F9264
S11335504F925F926F927F928F929F92AF92BF929F
S1133560CF92DF92EF92FF920F931F93DF93CF934B
S1133570CDB7DEB727970FB6F894DEBF0FBECDBF29
S1133580809173008B7F809373002FB72F8378947F
S11335908FEF80934E0410924F0480911403A82F50
S11335A0B0E01197BE83AD83EDE0F0E0AE9F500133
S11335B0AF9FB00CBE9FB00C112421E434E0A20EE6
S11335C0B31E6624772443015AC0D5018C91882305
S11335D009F44CC019962D903D904D905C901C9729
S11335E01596CD90DD90ED90FC901897C201B10135
S11335F0A70196018E010F5F1F4F0E94081A8823AE
S113360019F1D5011196ED91FC91129713968D91B4
S11336109C9114971C922091500430915104215094
S113362030403093510420935004C20CD31CE41C4A
S1133630F51C09811A812B813C81B701A6010995EA
S1133640BFEFB0934F0412C061147104810491045C
S113365049F089819A81AB81BC8186159705A805BB
S1133660B90520F469807A808B809C80ED81FE818D
S11336703197FE83ED8323EF3FEFA20EB31E8D81BE
S11336809E818F5F9F4F09F0A0CF80914F048823C4
S113369009F081CF10924E0480915004909151040E
S11336A0181619064CF52091240130912501D401F6
S11336B0C301880F991FAA1FBB1F8130EAEF9E0721
S11336C0E0E0AE07E0E0BE0720F080E09AEFA0E083
S11336D0B0E0820F931F02C080509A4FFAEF8030FF
S11336E09F07D0F790932B0180932A01D29A80915F
S11336F073008460809373002F812FBF27960FB6C9
S1133700F894DEBF0FBECDBFCF91DF911F910F9113
S1133710FF90EF90DF90CF90BF90AF909F908F90ED
S11337207F906F905F904F903F902F9008951F92DD
S11337300F920FB60F9211242F933F934F935F93E1
S11337406F937F938F939F93AF93BF93EF93FF9365
S11337500E94A61AFF91EF91BF91AF919F918F9113
S11337607F916F915F914F913F912F910F900FBE79
S11337700F901F9018952F923F924F925F926F92E5
S11337807F928F929F92AF92BF92CF92DF92EF92ED
S1133790FF920F931F93DF93CF9300D000D0CDB748
S11337A0DEB71C012B0149015A016701780188EE3B
S11337B0C81683E0D80680E0E80680E0F80638F40E
S11337C080914E048823C1F18FEF80934F046FB72B
S11337D0F89480911403482F50E0A1E4B4E020E071
S11337E030E020C0FD018C911D968823C9F48FEF31
S11337F08083328221825482438281869286A38688
S1133800B486C582D682E782F08680915004909176
S11338105104019690935104809350048FEF06C095
S11338202F5F3F4F24173507ECF280E06FBF8823EA
S1133830F1F48FEF0E949D133E010894611C711CEA
S1133840C501B401A701960183010E94081A8823C7
S1133850B9F3C80CD91CEA1CFB1C09811A812B8101
S11338603C81C201B701A601F101099506C080910E
S11338704E04882311F40E94A61A0F900F900F9003
S11338800F90CF91DF911F910F91FF90EF90DF90F8
S1133890CF90BF90AF909F908F907F906F905F90EC
S11338A04F903F902F900895CF93DF93BC018230C7
S11338B0910510F462E070E0A0915C04B0915D04A5
S11338C0ED01E0E0F0E040E050E021C08881998122
S11338D08617970769F48A819B81309719F093833F
S11338E0828304C090935D0480935C04FE0134C021
S11338F06817790738F44115510519F084179507AD
S113390008F4AC01FE018A819B819C01E9012097A6
S1133910E9F641155105A9F1CA01861B970B0497D5
S113392008F4BA01E0E0F0E02AC08D919C9111976F
S113393084179507F9F46417750781F412968D912D
S11339409C911397309719F09383828304C09093CA
S11339505D0480935C04FD0132964FC0CA01861B4E
S1133960970BFD01E80FF91F6193719302978D93F3
S11339709C9343C0FD01828193819C01D9011097DE
S1133980A1F680915A0490915B04892B41F48091B3
S113399017039091180390935B0480935A04409109
S11339A0190350911A034115510541F44DB75EB7FF
S11339B08091150390911603481B590B20915A04CA
S11339C030915B0424173507B0F4CA01821B930BB2
S11339D08617970780F0AB014E5F5F4F84179507FA
S11339E050F0420F531F50935B0440935A04F90163
S11339F06193719302C0E0E0F0E0CF01DF91CF91D9
S1133A000895CF93DF93009709F450C0EC012297F7
S1133A101B821A82A0915C04B0915D04109709F195
S1133A2040E050E0AC17BD0708F1BB83AA83FE0158
S1133A3021913191E20FF31FAE17BF0779F48D91F5
S1133A409C911197280F391F2E5F3F4F398328838C
S1133A5012968D919C9113979B838A8341155105EE
S1133A6071F4D0935D04C0935C0420C012968D91D0
S1133A709C911397AD01009711F0DC01D3CFFA01AB
S1133A80D383C28321913191E20FF31FCE17DF0755
S1133A9069F488819981280F391F2E5F3F4FFA01FD
S1133AA0318320838A819B8193838283DF91CF91A9
S1133AB00895F8940C944220283008F027E0332726
S1133AC0DA01990F311D87FD91600096610571053A
S1133AD039F432602E5F3D9330E32A95E1F708957F
S1133AE09F3F30F080387105610509F03C5F3C5F11
S1133AF03D93913008F08068911DDF93CF931F931D
S1133B000F93FF92EF92192F987F9695E92F969530
S1133B109695E90FFF27E85DFB4F99273327EE249D
S1133B20FF24A701E70105900894079428F4360FB1
S1133B30E71EF81E491F511D660F771F881F991F26
S1133B400694A1F70590079428F4E70EF81E491F80
S1133B50561FC11D770F881F991F661F0694A1F772
S1133B600590079428F4F80E491F561FC71FD11D4E
S1133B70880F991F661F771F0694A1F70590079475
S1133B8020F4490F561FC71FD81F990F661F771FB0
S1133B90881F0694A9F784911095177041F0D69563
S1133BA0C79557954795F794E7941A95C1F7EEECA6
S1133BB0F3E0689415901591359165919591059070
S1133BC07FE27395E118F10A430B560BC90BD00938
S1133BD0C0F7E10CF11E431F561FC91FD01D7EF410
S1133BE0703311F48A95E6CFE894015030F0080F51
S1133BF00AF40027021708F4202F2395022F7A33A2
S1133C0028F079E37D932A95E9F710C07D932A95EE
S1133C1089F6069497956795379517951794E11843
S1133C20F10A430B560BC90BD00998F023957E91EA
S1133C3073957A3308F070E37C932013B8F77E9180
S1133C4070617D9330F0839571E37D9370E32A95E1
S1133C50E1F71124EF90FF900F911F91CF91DF9125
S1133C60992787FD90950895FC0105906150704057
S1133C700110D8F7809590958E0F9F1F0895DC0151
S1133C8001C06D9341505040E0F70895FC0161502C
S1133C90704001900110D8F7809590958E0F9F1F6A
S1133CA00895FB019F01E8944230C4F04532B4F416
S1133CB04A3029F497FB1EF4909581959F4F642F09
S1133CC077270E94A11F805D8A330CF0895D819360
S1133CD0CB010097A1F716F45DE251931082C9015C
S1133CE00C94721FFA01CF93FF93EF93223044F1A7
S1133CF0253234F5C22FE894CA3049F497FB3EF4D8
S1133D0090958095709561957F4F8F4F9F4F2C2F85
S1133D10332744275527FF93EF930E94C81FEF9141
S1133D20FF91605D6A330CF0695D6193B901CA016A
S1133D30605070408040904051F716F4CDE2C1933A
S1133D4010828F919F91CF910C94721FFA01CF939F
S1133D50FF93EF932230CCF02532BCF4C22F2C2FEA
S1133D60332744275527FF93EF930E94C81FEF91F1
S1133D70FF91605D6A330CF0695D6193B901CA011A
S1133D80605070408040904051F710828F919F9115
S1133D90CF910C94721FA0E0B0E0E1EDFEE10C9431
S1133DA013200F8118859E01255F3F4FF801838101
S1133DB088608383C80169857A85A9010E9492027B
S1133DC0F8012381277F23832096E4E00C942F209D
S1133DD00F931F93CF93DF938C01EB018B8181FFB2
S1133DE01BC082FF0DC02E813F818C819D812817CD
S1133DF0390764F4E881F9810193F983E88306C003
S1133E00E885F985802F0995892B31F48E819F816E
S1133E1001969F838E8302C00FEF1FEFC801DF91CD
S1133E20CF911F910F910895FA01AA27283051F1DB
S1133E30203181F1E8946F936E7F6E5F7F4F8F4FD7
S1133E409F4FAF4FB1E03ED0B4E03CD0670F781F36
S1133E50891F9A1FA11D680F791F8A1F911DA11D1B
S1133E606A0F711D811D911DA11D20D009F4689454
S1133E703F912AE0269F11243019305D3193DEF6FC
S1133E80CF010895462F4770405D4193B3E00FD0B2
S1133E90C9F7F6CF462F4F70405D4A3318F0495D9D
S1133EA031FD4052419302D0A9F7EACFB4E0A69580
S1133EB09795879577956795BA95C9F700976105A2
S1133EC0710508959B01AC010A2E069457954795F8
S1133ED037952795BA95C9F7620F731F841F951FED
S1133EE0A01D0895DC01FC01672F71917723E1F790
S1133EF0329704C07C916D9370836291AE17BF07B3
S1133F00C8F30895629FD001739FF001829FE00D72
S1133F10F11D649FE00DF11D929FF00D839FF00D44
S1133F20749FF00D659FF00D9927729FB00DE11DF0
S1133F30F91F639FB00DE11DF91FBD01CF011124CD
S1133F400895AA1BBB1B51E107C0AA1FBB1FA617DC
S1133F50B70710F0A61BB70B881F991F5A95A9F72E
S1133F6080959095BC01CD01089597FB092E0726F5
S1133F700AD077FD04D0E5DF06D000201AF470954E
S1133F8061957F4F0895F6F7909581959F4F089519
S1133F90A1E21A2EAA1BBB1BFD010DC0AA1FBB1F49
S1133FA0EE1FFF1FA217B307E407F50720F0A21BBB
S1133FB0B30BE40BF50B661F771F881F991F1A9428
S1133FC069F760957095809590959B01AC01BD0152
S1133FD0CF01089597FB092E05260ED057FD04D076
S1133FE0D7DF0AD0001C38F45095409530952195C0
S1133FF03F4F4F4F5F4F0895F6F79095809570951A
S113400061957F4F8F4F9F4F08952F923F924F920C
S11340105F926F927F928F929F92AF92BF92CF9254
S1134020DF92EF92FF920F931F93CF93DF93CDB75D
S1134030DEB7CA1BDB0B0FB6F894DEBF0FBECDBFD5
S113404009942A88398848885F846E847D848C84A6
S11340509B84AA84B984C884DF80EE80FD800C81AF
S11340601B81AA81B981CE0FD11D0FB6F894DEBF92
S11340700FBECDBFED010895EE0FFF1F0590F49123
S1134080E02D099414E0CEECD4E004C0FE010E94BB
S11140903E202296C03DD107C9F7F894FFCF19
S113409E6661696C65642074726561742070616315
S11340AE6B65742000200020636F6D6D616E64205B
S11340BE006C656E203A200014050101010024F401
S11340CE00803E1000000000000000000000C2034B
S11340DEFFFF1A031D03D80EDD0E000000000000C2
S11340EE00A7199F191A190E19C800C900CC00CDC2
S11340FE00CE0000000210200311030E0308032358
S113410E03260314031703000000EC000100000053
S113411E00000000280020A1070080841E00005A21
S113412E0E0000800000003803AA055203000000B0
S113413E000000000000000000800000003B03AA05
S113414E0552030000000000000000000000008083
S113415E0000003E03AA0552030000000000000008
S113416E000000EE00030000000000000000000646
S113417E000000007D10000000008E100000000002
S113418E9410EA0F00000000EE0FEE0F0000000086
S113419EE20D9B1000000000E20DA91000000000CB
S10F41AEE40FE70F01200064040000008F
S9030000FC
